{
  "_format": "hh-sol-artifact-1",
  "contractName": "NFT",
  "sourceName": "contracts/NFT.sol",
  "abi": [
    {
      "inputs": [
        {
          "internalType": "address",
          "name": "_proxyRegistryAddress",
          "type": "address"
        }
      ],
      "stateMutability": "nonpayable",
      "type": "constructor"
    },
    {
      "anonymous": false,
      "inputs": [
        {
          "indexed": true,
          "internalType": "address",
          "name": "owner",
          "type": "address"
        },
        {
          "indexed": true,
          "internalType": "address",
          "name": "approved",
          "type": "address"
        },
        {
          "indexed": true,
          "internalType": "uint256",
          "name": "tokenId",
          "type": "uint256"
        }
      ],
      "name": "Approval",
      "type": "event"
    },
    {
      "anonymous": false,
      "inputs": [
        {
          "indexed": true,
          "internalType": "address",
          "name": "owner",
          "type": "address"
        },
        {
          "indexed": true,
          "internalType": "address",
          "name": "operator",
          "type": "address"
        },
        {
          "indexed": false,
          "internalType": "bool",
          "name": "approved",
          "type": "bool"
        }
      ],
      "name": "ApprovalForAll",
      "type": "event"
    },
    {
      "anonymous": false,
      "inputs": [
        {
          "indexed": true,
          "internalType": "address",
          "name": "from",
          "type": "address"
        },
        {
          "indexed": true,
          "internalType": "address",
          "name": "to",
          "type": "address"
        },
        {
          "indexed": true,
          "internalType": "uint256",
          "name": "tokenId",
          "type": "uint256"
        }
      ],
      "name": "Transfer",
      "type": "event"
    },
    {
      "inputs": [
        {
          "internalType": "address",
          "name": "to",
          "type": "address"
        },
        {
          "internalType": "uint256",
          "name": "tokenId",
          "type": "uint256"
        }
      ],
      "name": "approve",
      "outputs": [],
      "stateMutability": "nonpayable",
      "type": "function"
    },
    {
      "inputs": [
        {
          "internalType": "address",
          "name": "owner",
          "type": "address"
        }
      ],
      "name": "balanceOf",
      "outputs": [
        {
          "internalType": "uint256",
          "name": "",
          "type": "uint256"
        }
      ],
      "stateMutability": "view",
      "type": "function"
    },
    {
      "inputs": [],
      "name": "baseTokenURI",
      "outputs": [
        {
          "internalType": "string",
          "name": "",
          "type": "string"
        }
      ],
      "stateMutability": "pure",
      "type": "function"
    },
    {
      "inputs": [],
      "name": "contractURI",
      "outputs": [
        {
          "internalType": "string",
          "name": "",
          "type": "string"
        }
      ],
      "stateMutability": "pure",
      "type": "function"
    },
    {
      "inputs": [
        {
          "internalType": "uint256",
          "name": "tokenId",
          "type": "uint256"
        }
      ],
      "name": "getApproved",
      "outputs": [
        {
          "internalType": "address",
          "name": "",
          "type": "address"
        }
      ],
      "stateMutability": "view",
      "type": "function"
    },
    {
      "inputs": [
        {
          "internalType": "address",
          "name": "owner",
          "type": "address"
        },
        {
          "internalType": "address",
          "name": "operator",
          "type": "address"
        }
      ],
      "name": "isApprovedForAll",
      "outputs": [
        {
          "internalType": "bool",
          "name": "",
          "type": "bool"
        }
      ],
      "stateMutability": "view",
      "type": "function"
    },
    {
      "inputs": [
        {
          "internalType": "string",
          "name": "tokenURI",
          "type": "string"
        }
      ],
      "name": "mintToken",
      "outputs": [
        {
          "internalType": "uint256",
          "name": "",
          "type": "uint256"
        }
      ],
      "stateMutability": "nonpayable",
      "type": "function"
    },
    {
      "inputs": [],
      "name": "name",
      "outputs": [
        {
          "internalType": "string",
          "name": "",
          "type": "string"
        }
      ],
      "stateMutability": "view",
      "type": "function"
    },
    {
      "inputs": [
        {
          "internalType": "uint256",
          "name": "tokenId",
          "type": "uint256"
        }
      ],
      "name": "ownerOf",
      "outputs": [
        {
          "internalType": "address",
          "name": "",
          "type": "address"
        }
      ],
      "stateMutability": "view",
      "type": "function"
    },
    {
      "inputs": [
        {
          "internalType": "address",
          "name": "from",
          "type": "address"
        },
        {
          "internalType": "address",
          "name": "to",
          "type": "address"
        },
        {
          "internalType": "uint256",
          "name": "tokenId",
          "type": "uint256"
        }
      ],
      "name": "safeTransferFrom",
      "outputs": [],
      "stateMutability": "nonpayable",
      "type": "function"
    },
    {
      "inputs": [
        {
          "internalType": "address",
          "name": "from",
          "type": "address"
        },
        {
          "internalType": "address",
          "name": "to",
          "type": "address"
        },
        {
          "internalType": "uint256",
          "name": "tokenId",
          "type": "uint256"
        },
        {
          "internalType": "bytes",
          "name": "_data",
          "type": "bytes"
        }
      ],
      "name": "safeTransferFrom",
      "outputs": [],
      "stateMutability": "nonpayable",
      "type": "function"
    },
    {
      "inputs": [
        {
          "internalType": "address",
          "name": "operator",
          "type": "address"
        },
        {
          "internalType": "bool",
          "name": "approved",
          "type": "bool"
        }
      ],
      "name": "setApprovalForAll",
      "outputs": [],
      "stateMutability": "nonpayable",
      "type": "function"
    },
    {
      "inputs": [
        {
          "internalType": "bytes4",
          "name": "interfaceId",
          "type": "bytes4"
        }
      ],
      "name": "supportsInterface",
      "outputs": [
        {
          "internalType": "bool",
          "name": "",
          "type": "bool"
        }
      ],
      "stateMutability": "view",
      "type": "function"
    },
    {
      "inputs": [],
      "name": "symbol",
      "outputs": [
        {
          "internalType": "string",
          "name": "",
          "type": "string"
        }
      ],
      "stateMutability": "view",
      "type": "function"
    },
    {
      "inputs": [
        {
          "internalType": "uint256",
          "name": "tokenId",
          "type": "uint256"
        }
      ],
      "name": "tokenURI",
      "outputs": [
        {
          "internalType": "string",
          "name": "",
          "type": "string"
        }
      ],
      "stateMutability": "view",
      "type": "function"
    },
    {
      "inputs": [
        {
          "internalType": "address",
          "name": "from",
          "type": "address"
        },
        {
          "internalType": "address",
          "name": "to",
          "type": "address"
        },
        {
          "internalType": "uint256",
          "name": "tokenId",
          "type": "uint256"
        }
      ],
      "name": "transferFrom",
      "outputs": [],
      "stateMutability": "nonpayable",
      "type": "function"
    }
  ],
  "bytecode": "0x60806040523480156200001157600080fd5b50604051620019a3380380620019a383398101604081905262000034916200016f565b604080518082018252601081526f3337b1bab9b934ba329032b99918191960811b602080830191825283518085019094526005845264232922a99960d91b9084015281519192916200008991600091620000c9565b5080516200009f906001906020840190620000c9565b5050600880546001600160a01b0319166001600160a01b03939093169290921790915550620001dc565b828054620000d7906200019f565b90600052602060002090601f016020900481019282620000fb576000855562000146565b82601f106200011657805160ff191683800117855562000146565b8280016001018555821562000146579182015b828111156200014657825182559160200191906001019062000129565b506200015492915062000158565b5090565b5b8082111562000154576000815560010162000159565b60006020828403121562000181578081fd5b81516001600160a01b038116811462000198578182fd5b9392505050565b600181811c90821680620001b457607f821691505b60208210811415620001d657634e487b7160e01b600052602260045260246000fd5b50919050565b6117b780620001ec6000396000f3fe608060405234801561001057600080fd5b50600436106101005760003560e01c806370a0823111610097578063c87b56dd11610066578063c87b56dd1461021d578063d547cfb714610230578063e8a3d48514610238578063e985e9c51461024057600080fd5b806370a08231146101dc57806395d89b41146101ef578063a22cb465146101f7578063b88d4fde1461020a57600080fd5b806323b872dd116100d357806323b872dd1461018257806333eba49a1461019557806342842e0e146101b65780636352211e146101c957600080fd5b806301ffc9a71461010557806306fdde031461012d578063081812fc14610142578063095ea7b31461016d575b600080fd5b610118610113366004611400565b61027c565b60405190151581526020015b60405180910390f35b6101356102ce565b604051610124919061152e565b61015561015036600461147e565b610360565b6040516001600160a01b039091168152602001610124565b61018061017b3660046113d7565b6103ed565b005b6101806101903660046112e9565b610503565b6101a86101a3366004611438565b610534565b604051908152602001610124565b6101806101c43660046112e9565b61057c565b6101556101d736600461147e565b610597565b6101a86101ea36600461129d565b61060e565b610135610695565b61018061020536600461139d565b6106a4565b610180610218366004611324565b6106b3565b61013561022b36600461147e565b6106eb565b610135610862565b610135610882565b61011861024e3660046112b7565b6001600160a01b03918216600090815260056020908152604080832093909416825291909152205460ff1690565b60006001600160e01b031982166380ac58cd60e01b14806102ad57506001600160e01b03198216635b5e139f60e01b145b806102c857506301ffc9a760e01b6001600160e01b03198316145b92915050565b6060600080546102dd90611653565b80601f016020809104026020016040519081016040528092919081815260200182805461030990611653565b80156103565780601f1061032b57610100808354040283529160200191610356565b820191906000526020600020905b81548152906001019060200180831161033957829003601f168201915b5050505050905090565b600061036b826108a2565b6103d15760405162461bcd60e51b815260206004820152602c60248201527f4552433732313a20617070726f76656420717565727920666f72206e6f6e657860448201526b34b9ba32b73a103a37b5b2b760a11b60648201526084015b60405180910390fd5b506000908152600460205260409020546001600160a01b031690565b60006103f882610597565b9050806001600160a01b0316836001600160a01b031614156104665760405162461bcd60e51b815260206004820152602160248201527f4552433732313a20617070726f76616c20746f2063757272656e74206f776e656044820152603960f91b60648201526084016103c8565b336001600160a01b03821614806104825750610482813361024e565b6104f45760405162461bcd60e51b815260206004820152603860248201527f4552433732313a20617070726f76652063616c6c6572206973206e6f74206f7760448201527f6e6572206e6f7220617070726f76656420666f7220616c6c000000000000000060648201526084016103c8565b6104fe83836108bf565b505050565b61050d338261092d565b6105295760405162461bcd60e51b81526004016103c890611593565b6104fe838383610a13565b6000610544600780546001019055565b600061054f60075490565b905061055b3382610bb3565b6105658184610ce6565b6008546102c8906001600160a01b031660016106a4565b6104fe838383604051806020016040528060008152506106b3565b6000818152600260205260408120546001600160a01b0316806102c85760405162461bcd60e51b815260206004820152602960248201527f4552433732313a206f776e657220717565727920666f72206e6f6e657869737460448201526832b73a103a37b5b2b760b91b60648201526084016103c8565b60006001600160a01b0382166106795760405162461bcd60e51b815260206004820152602a60248201527f4552433732313a2062616c616e636520717565727920666f7220746865207a65604482015269726f206164647265737360b01b60648201526084016103c8565b506001600160a01b031660009081526003602052604090205490565b6060600180546102dd90611653565b6106af338383610d71565b5050565b6106bd338361092d565b6106d95760405162461bcd60e51b81526004016103c890611593565b6106e584848484610e40565b50505050565b60606106f6826108a2565b61075c5760405162461bcd60e51b815260206004820152603160248201527f45524337323155524953746f726167653a2055524920717565727920666f72206044820152703737b732bc34b9ba32b73a103a37b5b2b760791b60648201526084016103c8565b6000828152600660205260408120805461077590611653565b80601f01602080910402602001604051908101604052809291908181526020018280546107a190611653565b80156107ee5780601f106107c3576101008083540402835291602001916107ee565b820191906000526020600020905b8154815290600101906020018083116107d157829003601f168201915b50505050509050600061080c60408051602081019091526000815290565b905080516000141561081f575092915050565b8151156108515780826040516020016108399291906114c2565b60405160208183030381529060405292505050919050565b61085a84610e73565b949350505050565b60606040518060600160405280602e8152602001611754602e9139905090565b60606040518060600160405280603b8152602001611719603b9139905090565b6000908152600260205260409020546001600160a01b0316151590565b600081815260046020526040902080546001600160a01b0319166001600160a01b03841690811790915581906108f482610597565b6001600160a01b03167f8c5be1e5ebec7d5bd14f71427d1e84f3dd0314c0f7b2291e5b200ac8c7c3b92560405160405180910390a45050565b6000610938826108a2565b6109995760405162461bcd60e51b815260206004820152602c60248201527f4552433732313a206f70657261746f7220717565727920666f72206e6f6e657860448201526b34b9ba32b73a103a37b5b2b760a11b60648201526084016103c8565b60006109a483610597565b9050806001600160a01b0316846001600160a01b031614806109df5750836001600160a01b03166109d484610360565b6001600160a01b0316145b8061085a57506001600160a01b0380821660009081526005602090815260408083209388168352929052205460ff1661085a565b826001600160a01b0316610a2682610597565b6001600160a01b031614610a8e5760405162461bcd60e51b815260206004820152602960248201527f4552433732313a207472616e73666572206f6620746f6b656e2074686174206960448201526839903737ba1037bbb760b91b60648201526084016103c8565b6001600160a01b038216610af05760405162461bcd60e51b8152602060048201526024808201527f4552433732313a207472616e7366657220746f20746865207a65726f206164646044820152637265737360e01b60648201526084016103c8565b610afb6000826108bf565b6001600160a01b0383166000908152600360205260408120805460019290610b24908490611610565b90915550506001600160a01b0382166000908152600360205260408120805460019290610b529084906115e4565b909155505060008181526002602052604080822080546001600160a01b0319166001600160a01b0386811691821790925591518493918716917fddf252ad1be2c89b69c2b068fc378daa952ba7f163c4a11628f55a4df523b3ef91a4505050565b6001600160a01b038216610c095760405162461bcd60e51b815260206004820181905260248201527f4552433732313a206d696e7420746f20746865207a65726f206164647265737360448201526064016103c8565b610c12816108a2565b15610c5f5760405162461bcd60e51b815260206004820152601c60248201527f4552433732313a20746f6b656e20616c7265616479206d696e7465640000000060448201526064016103c8565b6001600160a01b0382166000908152600360205260408120805460019290610c889084906115e4565b909155505060008181526002602052604080822080546001600160a01b0319166001600160a01b03861690811790915590518392907fddf252ad1be2c89b69c2b068fc378daa952ba7f163c4a11628f55a4df523b3ef908290a45050565b610cef826108a2565b610d525760405162461bcd60e51b815260206004820152602e60248201527f45524337323155524953746f726167653a2055524920736574206f66206e6f6e60448201526d32bc34b9ba32b73a103a37b5b2b760911b60648201526084016103c8565b600082815260066020908152604090912082516104fe92840190611172565b816001600160a01b0316836001600160a01b03161415610dd35760405162461bcd60e51b815260206004820152601960248201527f4552433732313a20617070726f766520746f2063616c6c65720000000000000060448201526064016103c8565b6001600160a01b03838116600081815260056020908152604080832094871680845294825291829020805460ff191686151590811790915591519182527f17307eab39ab6107e8899845ad3d59bd9653f200f220920489ca2b5937696c31910160405180910390a3505050565b610e4b848484610a13565b610e5784848484610f4b565b6106e55760405162461bcd60e51b81526004016103c890611541565b6060610e7e826108a2565b610ee25760405162461bcd60e51b815260206004820152602f60248201527f4552433732314d657461646174613a2055524920717565727920666f72206e6f60448201526e3732bc34b9ba32b73a103a37b5b2b760891b60648201526084016103c8565b6000610ef960408051602081019091526000815290565b90506000815111610f195760405180602001604052806000815250610f44565b80610f2384611058565b604051602001610f349291906114c2565b6040516020818303038152906040525b9392505050565b60006001600160a01b0384163b1561104d57604051630a85bd0160e11b81526001600160a01b0385169063150b7a0290610f8f9033908990889088906004016114f1565b602060405180830381600087803b158015610fa957600080fd5b505af1925050508015610fd9575060408051601f3d908101601f19168201909252610fd69181019061141c565b60015b611033573d808015611007576040519150601f19603f3d011682016040523d82523d6000602084013e61100c565b606091505b50805161102b5760405162461bcd60e51b81526004016103c890611541565b805181602001fd5b6001600160e01b031916630a85bd0160e11b14905061085a565b506001949350505050565b60608161107c5750506040805180820190915260018152600360fc1b602082015290565b8160005b81156110a657806110908161168e565b915061109f9050600a836115fc565b9150611080565b60008167ffffffffffffffff8111156110cf57634e487b7160e01b600052604160045260246000fd5b6040519080825280601f01601f1916602001820160405280156110f9576020820181803683370190505b5090505b841561085a5761110e600183611610565b915061111b600a866116a9565b6111269060306115e4565b60f81b81838151811061114957634e487b7160e01b600052603260045260246000fd5b60200101906001600160f81b031916908160001a90535061116b600a866115fc565b94506110fd565b82805461117e90611653565b90600052602060002090601f0160209004810192826111a057600085556111e6565b82601f106111b957805160ff19168380011785556111e6565b828001600101855582156111e6579182015b828111156111e65782518255916020019190600101906111cb565b506111f29291506111f6565b5090565b5b808211156111f257600081556001016111f7565b600067ffffffffffffffff80841115611226576112266116e9565b604051601f8501601f19908116603f0116810190828211818310171561124e5761124e6116e9565b8160405280935085815286868601111561126757600080fd5b858560208301376000602087830101525050509392505050565b80356001600160a01b038116811461129857600080fd5b919050565b6000602082840312156112ae578081fd5b610f4482611281565b600080604083850312156112c9578081fd5b6112d283611281565b91506112e060208401611281565b90509250929050565b6000806000606084860312156112fd578081fd5b61130684611281565b925061131460208501611281565b9150604084013590509250925092565b60008060008060808587031215611339578081fd5b61134285611281565b935061135060208601611281565b925060408501359150606085013567ffffffffffffffff811115611372578182fd5b8501601f81018713611382578182fd5b6113918782356020840161120b565b91505092959194509250565b600080604083850312156113af578182fd5b6113b883611281565b9150602083013580151581146113cc578182fd5b809150509250929050565b600080604083850312156113e9578182fd5b6113f283611281565b946020939093013593505050565b600060208284031215611411578081fd5b8135610f44816116ff565b60006020828403121561142d578081fd5b8151610f44816116ff565b600060208284031215611449578081fd5b813567ffffffffffffffff81111561145f578182fd5b8201601f8101841361146f578182fd5b61085a8482356020840161120b565b60006020828403121561148f578081fd5b5035919050565b600081518084526114ae816020860160208601611627565b601f01601f19169290920160200192915050565b600083516114d4818460208801611627565b8351908301906114e8818360208801611627565b01949350505050565b6001600160a01b038581168252841660208201526040810183905260806060820181905260009061152490830184611496565b9695505050505050565b602081526000610f446020830184611496565b60208082526032908201527f4552433732313a207472616e7366657220746f206e6f6e20455243373231526560408201527131b2b4bb32b91034b6b83632b6b2b73a32b960711b606082015260800190565b60208082526031908201527f4552433732313a207472616e736665722063616c6c6572206973206e6f74206f6040820152701ddb995c881b9bdc88185c1c1c9bdd9959607a1b606082015260800190565b600082198211156115f7576115f76116bd565b500190565b60008261160b5761160b6116d3565b500490565b600082821015611622576116226116bd565b500390565b60005b8381101561164257818101518382015260200161162a565b838111156106e55750506000910152565b600181811c9082168061166757607f821691505b6020821081141561168857634e487b7160e01b600052602260045260246000fd5b50919050565b60006000198214156116a2576116a26116bd565b5060010190565b6000826116b8576116b86116d3565b500690565b634e487b7160e01b600052601160045260246000fd5b634e487b7160e01b600052601260045260246000fd5b634e487b7160e01b600052604160045260246000fd5b6001600160e01b03198116811461171557600080fd5b5056fe68747470733a2f2f6372656174757265732d6170692e6f70656e7365612e696f2f636f6e74726163742f6f70656e7365612d63726561747572657368747470733a2f2f6372656174757265732d6170692e6f70656e7365612e696f2f6170692f63726561747572652fa2646970667358221220187c89d21f4b3dc65c98a0424a07c98ff2cd16e4bf83eda87b25d3f905889ceb64736f6c63430008040033",
  "linkReferences": {},
  "deployedLinkReferences": {}
}