{
  "_format": "hh-sol-artifact-1",
  "contractName": "ESMarket",
  "sourceName": "contracts/ESMarket.sol",
  "abi": [
    {
      "inputs": [],
      "stateMutability": "nonpayable",
      "type": "constructor"
    },
    {
      "anonymous": false,
      "inputs": [
        {
          "indexed": true,
          "internalType": "uint256",
          "name": "itemId",
          "type": "uint256"
        },
        {
          "indexed": true,
          "internalType": "address",
          "name": "nftContract",
          "type": "address"
        },
        {
          "indexed": true,
          "internalType": "uint256",
          "name": "tokenId",
          "type": "uint256"
        },
        {
          "indexed": false,
          "internalType": "address",
          "name": "seller",
          "type": "address"
        },
        {
          "indexed": false,
          "internalType": "address",
          "name": "owner",
          "type": "address"
        },
        {
          "indexed": false,
          "internalType": "uint256",
          "name": "price",
          "type": "uint256"
        },
        {
          "indexed": false,
          "internalType": "bool",
          "name": "sold",
          "type": "bool"
        }
      ],
      "name": "MarketTokenMinted",
      "type": "event"
    },
    {
      "inputs": [
        {
          "internalType": "address",
          "name": "nftContract",
          "type": "address"
        },
        {
          "internalType": "uint256",
          "name": "itemId",
          "type": "uint256"
        }
      ],
      "name": "createMarketSale",
      "outputs": [],
      "stateMutability": "payable",
      "type": "function"
    },
    {
      "inputs": [],
      "name": "fetchAllTokens",
      "outputs": [
        {
          "components": [
            {
              "internalType": "uint256",
              "name": "itemId",
              "type": "uint256"
            },
            {
              "internalType": "address",
              "name": "nftContract",
              "type": "address"
            },
            {
              "internalType": "uint256",
              "name": "tokenId",
              "type": "uint256"
            },
            {
              "internalType": "address payable",
              "name": "seller",
              "type": "address"
            },
            {
              "internalType": "address payable",
              "name": "owner",
              "type": "address"
            },
            {
              "internalType": "uint256",
              "name": "price",
              "type": "uint256"
            },
            {
              "internalType": "bool",
              "name": "sold",
              "type": "bool"
            }
          ],
          "internalType": "struct ESMarket.MarketToken[]",
          "name": "",
          "type": "tuple[]"
        }
      ],
      "stateMutability": "view",
      "type": "function"
    },
    {
      "inputs": [],
      "name": "fetchItemsCreated",
      "outputs": [
        {
          "components": [
            {
              "internalType": "uint256",
              "name": "itemId",
              "type": "uint256"
            },
            {
              "internalType": "address",
              "name": "nftContract",
              "type": "address"
            },
            {
              "internalType": "uint256",
              "name": "tokenId",
              "type": "uint256"
            },
            {
              "internalType": "address payable",
              "name": "seller",
              "type": "address"
            },
            {
              "internalType": "address payable",
              "name": "owner",
              "type": "address"
            },
            {
              "internalType": "uint256",
              "name": "price",
              "type": "uint256"
            },
            {
              "internalType": "bool",
              "name": "sold",
              "type": "bool"
            }
          ],
          "internalType": "struct ESMarket.MarketToken[]",
          "name": "",
          "type": "tuple[]"
        }
      ],
      "stateMutability": "view",
      "type": "function"
    },
    {
      "inputs": [],
      "name": "fetchMarketTokens",
      "outputs": [
        {
          "components": [
            {
              "internalType": "uint256",
              "name": "itemId",
              "type": "uint256"
            },
            {
              "internalType": "address",
              "name": "nftContract",
              "type": "address"
            },
            {
              "internalType": "uint256",
              "name": "tokenId",
              "type": "uint256"
            },
            {
              "internalType": "address payable",
              "name": "seller",
              "type": "address"
            },
            {
              "internalType": "address payable",
              "name": "owner",
              "type": "address"
            },
            {
              "internalType": "uint256",
              "name": "price",
              "type": "uint256"
            },
            {
              "internalType": "bool",
              "name": "sold",
              "type": "bool"
            }
          ],
          "internalType": "struct ESMarket.MarketToken[]",
          "name": "",
          "type": "tuple[]"
        }
      ],
      "stateMutability": "view",
      "type": "function"
    },
    {
      "inputs": [],
      "name": "fetchMyNFTs",
      "outputs": [
        {
          "components": [
            {
              "internalType": "uint256",
              "name": "itemId",
              "type": "uint256"
            },
            {
              "internalType": "address",
              "name": "nftContract",
              "type": "address"
            },
            {
              "internalType": "uint256",
              "name": "tokenId",
              "type": "uint256"
            },
            {
              "internalType": "address payable",
              "name": "seller",
              "type": "address"
            },
            {
              "internalType": "address payable",
              "name": "owner",
              "type": "address"
            },
            {
              "internalType": "uint256",
              "name": "price",
              "type": "uint256"
            },
            {
              "internalType": "bool",
              "name": "sold",
              "type": "bool"
            }
          ],
          "internalType": "struct ESMarket.MarketToken[]",
          "name": "",
          "type": "tuple[]"
        }
      ],
      "stateMutability": "view",
      "type": "function"
    },
    {
      "inputs": [],
      "name": "getListingPrice",
      "outputs": [
        {
          "internalType": "uint256",
          "name": "",
          "type": "uint256"
        }
      ],
      "stateMutability": "view",
      "type": "function"
    },
    {
      "inputs": [
        {
          "internalType": "address",
          "name": "nftContract",
          "type": "address"
        },
        {
          "internalType": "uint256",
          "name": "tokenId",
          "type": "uint256"
        },
        {
          "internalType": "uint256",
          "name": "price",
          "type": "uint256"
        }
      ],
      "name": "makeMarketItem",
      "outputs": [],
      "stateMutability": "payable",
      "type": "function"
    }
  ],
  "bytecode": "0x6080604052655af3107a400060045534801561001a57600080fd5b506001600055600380546001600160a01b03191633179055610e7d806100416000396000f3fe6080604052600436106100705760003560e01c80637a060f561161004e5780637a060f56146100cf578063c23b139e146100e4578063c69bdf75146100f7578063f064c32e1461010c57600080fd5b806312e8558514610075578063202e3740146100985780632528b676146100ba575b600080fd5b34801561008157600080fd5b506004546040519081526020015b60405180910390f35b3480156100a457600080fd5b506100ad610121565b60405161008f9190610d53565b3480156100c657600080fd5b506100ad610322565b6100e26100dd366004610d21565b61047c565b005b6100e26100f2366004610cf8565b610715565b34801561010357600080fd5b506100ad610909565b34801561011857600080fd5b506100ad610aa8565b6060600061012e60015490565b905060008060005b8381101561019157336005600061014e846001610de7565b81526020810191909152604001600020600401546001600160a01b0316141561017f5761017c600184610de7565b92505b8061018981610e16565b915050610136565b5060008267ffffffffffffffff8111156101bb57634e487b7160e01b600052604160045260246000fd5b6040519080825280602002602001820160405280156101f457816020015b6101e1610ca0565b8152602001906001900390816101d95790505b50905060005b84811015610319573360056000610212846001610de7565b81526020810191909152604001600020600401546001600160a01b03161415610307576000600581610245846001610de7565b81526020808201929092526040908101600090812054808252600580855291839020835160e0810185528154815260018201546001600160a01b0390811696820196909652600282015494810194909452600381015485166060850152600481015490941660808401529083015460a0830152600683015460ff16151560c083015285519093508590879081106102ec57634e487b7160e01b600052603260045260246000fd5b6020908102919091010152610302600186610de7565b945050505b8061031181610e16565b9150506101fa565b50949350505050565b6060600061032f60015490565b90506000808267ffffffffffffffff81111561035b57634e487b7160e01b600052604160045260246000fd5b60405190808252806020026020018201604052801561039457816020015b610381610ca0565b8152602001906001900390816103795790505b50905060005b838110156104745760006103af826001610de7565b600081815260056020818152604092839020835160e0810185528154815260018201546001600160a01b0390811693820193909352600282015494810194909452600381015482166060850152600481015490911660808401529081015460a0830152600681015460ff16151560c083015285519293509185908790811061044757634e487b7160e01b600052603260045260246000fd5b602090810291909101015261045d600186610de7565b94505050808061046c90610e16565b91505061039a565b509392505050565b600260005414156104d45760405162461bcd60e51b815260206004820152601f60248201527f5265656e7472616e637947756172643a207265656e7472616e742063616c6c0060448201526064015b60405180910390fd5b60026000558061051d5760405162461bcd60e51b81526020600482015260146024820152735072696365206174206c6561737420312077656960601b60448201526064016104cb565b600454341461057a5760405162461bcd60e51b8152602060048201526024808201527f5072696365206d75737420626520657175616c20746f206c697374696e6720706044820152637269636560e01b60648201526084016104cb565b610588600180546001019055565b600061059360015490565b6040805160e0810182528281526001600160a01b0387811660208084018281528486018a8152336060870181815260006080890181815260a08a018e8152600160c08c018181528e85526005998a9052938d90209b518c559651968b0180546001600160a01b0319908116988c16989098179055945160028b0155915160038a0180548716918a1691909117905590516004808a0180549096169190981617909355905192860192909255516006909401805460ff19169415159490941790935592516323b872dd60e01b81529081019190915230602482015260448101869052919250906323b872dd90606401600060405180830381600087803b15801561069b57600080fd5b505af11580156106af573d6000803e3d6000fd5b505060408051338152600060208201819052818301879052606082015290518693506001600160a01b038816925084917fcd9b0dfebab7db4dbe70606f69fadc8e987e7c80a65410f0bb5ae8bd72dabba7919081900360800190a4505060016000555050565b600260005414156107685760405162461bcd60e51b815260206004820152601f60248201527f5265656e7472616e637947756172643a207265656e7472616e742063616c6c0060448201526064016104cb565b60026000818155828152600560208190526040909120908101549101543482146107d45760405162461bcd60e51b815260206004820152601e60248201527f506c65617365207375626d6974207468652061736b696e67207072696365000060448201526064016104cb565b6000838152600560205260408082206003015490516001600160a01b03909116913480156108fc02929091818181858888f1935050505015801561081c573d6000803e3d6000fd5b506040516323b872dd60e01b8152306004820152336024820152604481018290526001600160a01b038516906323b872dd90606401600060405180830381600087803b15801561086b57600080fd5b505af115801561087f573d6000803e3d6000fd5b50505060008481526005602052604090206004810180546001600160a01b03191633179055600601805460ff19166001179055506108c1600280546001019055565b6003546004546040516001600160a01b039092169181156108fc0291906000818181858888f193505050501580156108fd573d6000803e3d6000fd5b50506001600055505050565b6060600061091660015490565b9050600061092360025490565b6001546109309190610dff565b90506000808267ffffffffffffffff81111561095c57634e487b7160e01b600052604160045260246000fd5b60405190808252806020026020018201604052801561099557816020015b610982610ca0565b81526020019060019003908161097a5790505b50905060005b848110156103195760006005816109b3846001610de7565b81526020810191909152604001600020600401546001600160a01b03161415610a965760006109e3826001610de7565b600081815260056020818152604092839020835160e0810185528154815260018201546001600160a01b0390811693820193909352600282015494810194909452600381015482166060850152600481015490911660808401529081015460a0830152600681015460ff16151560c0830152855192935091859087908110610a7b57634e487b7160e01b600052603260045260246000fd5b6020908102919091010152610a91600186610de7565b945050505b80610aa081610e16565b91505061099b565b60606000610ab560015490565b905060008060005b83811015610b18573360056000610ad5846001610de7565b81526020810191909152604001600020600301546001600160a01b03161415610b0657610b03600184610de7565b92505b80610b1081610e16565b915050610abd565b5060008267ffffffffffffffff811115610b4257634e487b7160e01b600052604160045260246000fd5b604051908082528060200260200182016040528015610b7b57816020015b610b68610ca0565b815260200190600190039081610b605790505b50905060005b84811015610319573360056000610b99846001610de7565b81526020810191909152604001600020600301546001600160a01b03161415610c8e576000600581610bcc846001610de7565b81526020808201929092526040908101600090812054808252600580855291839020835160e0810185528154815260018201546001600160a01b0390811696820196909652600282015494810194909452600381015485166060850152600481015490941660808401529083015460a0830152600683015460ff16151560c08301528551909350859087908110610c7357634e487b7160e01b600052603260045260246000fd5b6020908102919091010152610c89600186610de7565b945050505b80610c9881610e16565b915050610b81565b6040805160e081018252600080825260208201819052918101829052606081018290526080810182905260a0810182905260c081019190915290565b80356001600160a01b0381168114610cf357600080fd5b919050565b60008060408385031215610d0a578182fd5b610d1383610cdc565b946020939093013593505050565b600080600060608486031215610d35578081fd5b610d3e84610cdc565b95602085013595506040909401359392505050565b602080825282518282018190526000919060409081850190868401855b82811015610dda57815180518552868101516001600160a01b039081168887015286820151878701526060808301518216908701526080808301519091169086015260a0808201519086015260c09081015115159085015260e09093019290850190600101610d70565b5091979650505050505050565b60008219821115610dfa57610dfa610e31565b500190565b600082821015610e1157610e11610e31565b500390565b6000600019821415610e2a57610e2a610e31565b5060010190565b634e487b7160e01b600052601160045260246000fdfea26469706673582212204f0e5dd041a6d23b93c906458946da0d1a901813a7367d37bf0a00dabae1943364736f6c63430008040033",
  "linkReferences": {},
  "deployedLinkReferences": {}
}