{
  "_format": "hh-sol-artifact-1",
  "contractName": "CreatureAccessory",
  "sourceName": "contracts/ShapeAccessory.sol",
  "abi": [
    {
      "inputs": [
        {
          "internalType": "address",
          "name": "_proxyRegistryAddress",
          "type": "address"
        }
      ],
      "stateMutability": "nonpayable",
      "type": "constructor"
    },
    {
      "anonymous": false,
      "inputs": [
        {
          "indexed": true,
          "internalType": "address",
          "name": "account",
          "type": "address"
        },
        {
          "indexed": true,
          "internalType": "address",
          "name": "operator",
          "type": "address"
        },
        {
          "indexed": false,
          "internalType": "bool",
          "name": "approved",
          "type": "bool"
        }
      ],
      "name": "ApprovalForAll",
      "type": "event"
    },
    {
      "anonymous": false,
      "inputs": [
        {
          "indexed": false,
          "internalType": "address",
          "name": "userAddress",
          "type": "address"
        },
        {
          "indexed": false,
          "internalType": "address payable",
          "name": "relayerAddress",
          "type": "address"
        },
        {
          "indexed": false,
          "internalType": "bytes",
          "name": "functionSignature",
          "type": "bytes"
        }
      ],
      "name": "MetaTransactionExecuted",
      "type": "event"
    },
    {
      "anonymous": false,
      "inputs": [
        {
          "indexed": true,
          "internalType": "address",
          "name": "previousOwner",
          "type": "address"
        },
        {
          "indexed": true,
          "internalType": "address",
          "name": "newOwner",
          "type": "address"
        }
      ],
      "name": "OwnershipTransferred",
      "type": "event"
    },
    {
      "anonymous": false,
      "inputs": [
        {
          "indexed": true,
          "internalType": "address",
          "name": "operator",
          "type": "address"
        },
        {
          "indexed": true,
          "internalType": "address",
          "name": "from",
          "type": "address"
        },
        {
          "indexed": true,
          "internalType": "address",
          "name": "to",
          "type": "address"
        },
        {
          "indexed": false,
          "internalType": "uint256[]",
          "name": "ids",
          "type": "uint256[]"
        },
        {
          "indexed": false,
          "internalType": "uint256[]",
          "name": "values",
          "type": "uint256[]"
        }
      ],
      "name": "TransferBatch",
      "type": "event"
    },
    {
      "anonymous": false,
      "inputs": [
        {
          "indexed": true,
          "internalType": "address",
          "name": "operator",
          "type": "address"
        },
        {
          "indexed": true,
          "internalType": "address",
          "name": "from",
          "type": "address"
        },
        {
          "indexed": true,
          "internalType": "address",
          "name": "to",
          "type": "address"
        },
        {
          "indexed": false,
          "internalType": "uint256",
          "name": "id",
          "type": "uint256"
        },
        {
          "indexed": false,
          "internalType": "uint256",
          "name": "value",
          "type": "uint256"
        }
      ],
      "name": "TransferSingle",
      "type": "event"
    },
    {
      "anonymous": false,
      "inputs": [
        {
          "indexed": false,
          "internalType": "string",
          "name": "value",
          "type": "string"
        },
        {
          "indexed": true,
          "internalType": "uint256",
          "name": "id",
          "type": "uint256"
        }
      ],
      "name": "URI",
      "type": "event"
    },
    {
      "inputs": [],
      "name": "ERC712_VERSION",
      "outputs": [
        {
          "internalType": "string",
          "name": "",
          "type": "string"
        }
      ],
      "stateMutability": "view",
      "type": "function"
    },
    {
      "inputs": [
        {
          "internalType": "address",
          "name": "account",
          "type": "address"
        },
        {
          "internalType": "uint256",
          "name": "id",
          "type": "uint256"
        }
      ],
      "name": "balanceOf",
      "outputs": [
        {
          "internalType": "uint256",
          "name": "",
          "type": "uint256"
        }
      ],
      "stateMutability": "view",
      "type": "function"
    },
    {
      "inputs": [
        {
          "internalType": "address[]",
          "name": "accounts",
          "type": "address[]"
        },
        {
          "internalType": "uint256[]",
          "name": "ids",
          "type": "uint256[]"
        }
      ],
      "name": "balanceOfBatch",
      "outputs": [
        {
          "internalType": "uint256[]",
          "name": "",
          "type": "uint256[]"
        }
      ],
      "stateMutability": "view",
      "type": "function"
    },
    {
      "inputs": [
        {
          "internalType": "address",
          "name": "_to",
          "type": "address"
        },
        {
          "internalType": "uint256[]",
          "name": "_ids",
          "type": "uint256[]"
        },
        {
          "internalType": "uint256[]",
          "name": "_quantities",
          "type": "uint256[]"
        },
        {
          "internalType": "bytes",
          "name": "_data",
          "type": "bytes"
        }
      ],
      "name": "batchMint",
      "outputs": [],
      "stateMutability": "nonpayable",
      "type": "function"
    },
    {
      "inputs": [],
      "name": "contractURI",
      "outputs": [
        {
          "internalType": "string",
          "name": "",
          "type": "string"
        }
      ],
      "stateMutability": "pure",
      "type": "function"
    },
    {
      "inputs": [
        {
          "internalType": "address",
          "name": "_initialOwner",
          "type": "address"
        },
        {
          "internalType": "uint256",
          "name": "_id",
          "type": "uint256"
        },
        {
          "internalType": "uint256",
          "name": "_initialSupply",
          "type": "uint256"
        },
        {
          "internalType": "string",
          "name": "_uri",
          "type": "string"
        },
        {
          "internalType": "bytes",
          "name": "_data",
          "type": "bytes"
        }
      ],
      "name": "create",
      "outputs": [
        {
          "internalType": "uint256",
          "name": "",
          "type": "uint256"
        }
      ],
      "stateMutability": "nonpayable",
      "type": "function"
    },
    {
      "inputs": [
        {
          "internalType": "uint256",
          "name": "",
          "type": "uint256"
        }
      ],
      "name": "creators",
      "outputs": [
        {
          "internalType": "address",
          "name": "",
          "type": "address"
        }
      ],
      "stateMutability": "view",
      "type": "function"
    },
    {
      "inputs": [
        {
          "internalType": "address",
          "name": "userAddress",
          "type": "address"
        },
        {
          "internalType": "bytes",
          "name": "functionSignature",
          "type": "bytes"
        },
        {
          "internalType": "bytes32",
          "name": "sigR",
          "type": "bytes32"
        },
        {
          "internalType": "bytes32",
          "name": "sigS",
          "type": "bytes32"
        },
        {
          "internalType": "uint8",
          "name": "sigV",
          "type": "uint8"
        }
      ],
      "name": "executeMetaTransaction",
      "outputs": [
        {
          "internalType": "bytes",
          "name": "",
          "type": "bytes"
        }
      ],
      "stateMutability": "payable",
      "type": "function"
    },
    {
      "inputs": [
        {
          "internalType": "uint256",
          "name": "_id",
          "type": "uint256"
        }
      ],
      "name": "exists",
      "outputs": [
        {
          "internalType": "bool",
          "name": "",
          "type": "bool"
        }
      ],
      "stateMutability": "view",
      "type": "function"
    },
    {
      "inputs": [],
      "name": "getChainId",
      "outputs": [
        {
          "internalType": "uint256",
          "name": "",
          "type": "uint256"
        }
      ],
      "stateMutability": "view",
      "type": "function"
    },
    {
      "inputs": [],
      "name": "getDomainSeperator",
      "outputs": [
        {
          "internalType": "bytes32",
          "name": "",
          "type": "bytes32"
        }
      ],
      "stateMutability": "view",
      "type": "function"
    },
    {
      "inputs": [
        {
          "internalType": "address",
          "name": "user",
          "type": "address"
        }
      ],
      "name": "getNonce",
      "outputs": [
        {
          "internalType": "uint256",
          "name": "nonce",
          "type": "uint256"
        }
      ],
      "stateMutability": "view",
      "type": "function"
    },
    {
      "inputs": [
        {
          "internalType": "address",
          "name": "_owner",
          "type": "address"
        },
        {
          "internalType": "address",
          "name": "_operator",
          "type": "address"
        }
      ],
      "name": "isApprovedForAll",
      "outputs": [
        {
          "internalType": "bool",
          "name": "isOperator",
          "type": "bool"
        }
      ],
      "stateMutability": "view",
      "type": "function"
    },
    {
      "inputs": [
        {
          "internalType": "address",
          "name": "_to",
          "type": "address"
        },
        {
          "internalType": "uint256",
          "name": "_id",
          "type": "uint256"
        },
        {
          "internalType": "uint256",
          "name": "_quantity",
          "type": "uint256"
        },
        {
          "internalType": "bytes",
          "name": "_data",
          "type": "bytes"
        }
      ],
      "name": "mint",
      "outputs": [],
      "stateMutability": "nonpayable",
      "type": "function"
    },
    {
      "inputs": [],
      "name": "name",
      "outputs": [
        {
          "internalType": "string",
          "name": "",
          "type": "string"
        }
      ],
      "stateMutability": "view",
      "type": "function"
    },
    {
      "inputs": [],
      "name": "owner",
      "outputs": [
        {
          "internalType": "address",
          "name": "",
          "type": "address"
        }
      ],
      "stateMutability": "view",
      "type": "function"
    },
    {
      "inputs": [],
      "name": "renounceOwnership",
      "outputs": [],
      "stateMutability": "nonpayable",
      "type": "function"
    },
    {
      "inputs": [
        {
          "internalType": "address",
          "name": "from",
          "type": "address"
        },
        {
          "internalType": "address",
          "name": "to",
          "type": "address"
        },
        {
          "internalType": "uint256[]",
          "name": "ids",
          "type": "uint256[]"
        },
        {
          "internalType": "uint256[]",
          "name": "amounts",
          "type": "uint256[]"
        },
        {
          "internalType": "bytes",
          "name": "data",
          "type": "bytes"
        }
      ],
      "name": "safeBatchTransferFrom",
      "outputs": [],
      "stateMutability": "nonpayable",
      "type": "function"
    },
    {
      "inputs": [
        {
          "internalType": "address",
          "name": "from",
          "type": "address"
        },
        {
          "internalType": "address",
          "name": "to",
          "type": "address"
        },
        {
          "internalType": "uint256",
          "name": "id",
          "type": "uint256"
        },
        {
          "internalType": "uint256",
          "name": "amount",
          "type": "uint256"
        },
        {
          "internalType": "bytes",
          "name": "data",
          "type": "bytes"
        }
      ],
      "name": "safeTransferFrom",
      "outputs": [],
      "stateMutability": "nonpayable",
      "type": "function"
    },
    {
      "inputs": [
        {
          "internalType": "address",
          "name": "operator",
          "type": "address"
        },
        {
          "internalType": "bool",
          "name": "approved",
          "type": "bool"
        }
      ],
      "name": "setApprovalForAll",
      "outputs": [],
      "stateMutability": "nonpayable",
      "type": "function"
    },
    {
      "inputs": [
        {
          "internalType": "address",
          "name": "_to",
          "type": "address"
        },
        {
          "internalType": "uint256[]",
          "name": "_ids",
          "type": "uint256[]"
        }
      ],
      "name": "setCreator",
      "outputs": [],
      "stateMutability": "nonpayable",
      "type": "function"
    },
    {
      "inputs": [
        {
          "internalType": "uint256",
          "name": "_tokenId",
          "type": "uint256"
        },
        {
          "internalType": "string",
          "name": "_newURI",
          "type": "string"
        }
      ],
      "name": "setCustomURI",
      "outputs": [],
      "stateMutability": "nonpayable",
      "type": "function"
    },
    {
      "inputs": [
        {
          "internalType": "string",
          "name": "_newURI",
          "type": "string"
        }
      ],
      "name": "setURI",
      "outputs": [],
      "stateMutability": "nonpayable",
      "type": "function"
    },
    {
      "inputs": [
        {
          "internalType": "bytes4",
          "name": "interfaceId",
          "type": "bytes4"
        }
      ],
      "name": "supportsInterface",
      "outputs": [
        {
          "internalType": "bool",
          "name": "",
          "type": "bool"
        }
      ],
      "stateMutability": "view",
      "type": "function"
    },
    {
      "inputs": [],
      "name": "symbol",
      "outputs": [
        {
          "internalType": "string",
          "name": "",
          "type": "string"
        }
      ],
      "stateMutability": "view",
      "type": "function"
    },
    {
      "inputs": [
        {
          "internalType": "uint256",
          "name": "",
          "type": "uint256"
        }
      ],
      "name": "tokenSupply",
      "outputs": [
        {
          "internalType": "uint256",
          "name": "",
          "type": "uint256"
        }
      ],
      "stateMutability": "view",
      "type": "function"
    },
    {
      "inputs": [
        {
          "internalType": "uint256",
          "name": "_id",
          "type": "uint256"
        }
      ],
      "name": "totalSupply",
      "outputs": [
        {
          "internalType": "uint256",
          "name": "",
          "type": "uint256"
        }
      ],
      "stateMutability": "view",
      "type": "function"
    },
    {
      "inputs": [
        {
          "internalType": "address",
          "name": "newOwner",
          "type": "address"
        }
      ],
      "name": "transferOwnership",
      "outputs": [],
      "stateMutability": "nonpayable",
      "type": "function"
    },
    {
      "inputs": [
        {
          "internalType": "uint256",
          "name": "_id",
          "type": "uint256"
        }
      ],
      "name": "uri",
      "outputs": [
        {
          "internalType": "string",
          "name": "",
          "type": "string"
        }
      ],
      "stateMutability": "view",
      "type": "function"
    }
  ],
  "bytecode": "0x60806040526003805460ff191690553480156200001b57600080fd5b506040516200334a3803806200334a8339810160408190526200003e9162000451565b6040518060400160405280601a81526020017f4f70656e536561204372656174757265204163636573736f7279000000000000815250604051806040016040528060048152602001634f53434160e01b81525060405180606001604052806033815260200162003317603391398381620000b881620001bf565b50620000cd620000c7620001d8565b620001f4565b8351620000e290600b906020870190620003ab565b508251620000f890600c906020860190620003ab565b50600780546001600160a01b0319166001600160a01b038316179055600b8054620001b49190620001299062000481565b80601f0160208091040260200160405190810160405280929190818152602001828054620001579062000481565b8015620001a85780601f106200017c57610100808354040283529160200191620001a8565b820191906000526020600020905b8154815290600101906020018083116200018a57829003601f168201915b50506200024692505050565b5050505050620004be565b8051620001d4906002906020840190620003ab565b5050565b6000620001ef620002aa60201b620014b61760201c565b905090565b600680546001600160a01b038381166001600160a01b0319831681179093556040519116919082907f8be0079c531659141344cd1fd0a4f28419497f9722a3daafe3b4186f6b6457e090600090a35050565b60035460ff16156200028f5760405162461bcd60e51b815260206004820152600e60248201526d185b1c9958591e481a5b9a5d195960921b604482015260640160405180910390fd5b6200029a8162000309565b506003805460ff19166001179055565b6000333014156200030357600080368080601f0160208091040260200160405190810160405280939291908181526020018383808284376000920191909152505050503601516001600160a01b03169150620003069050565b50335b90565b6040518060800160405280604f8152602001620032c8604f9139805160209182012082519282019290922060408051808201825260018152603160f81b90840152805180840194909452838101919091527fc89efdaa54c0f20c7adf612882df0950f5a951637e0307cdcb4c672f298b8bc660608401523060808401524660a0808501919091528151808503909101815260c090930190528151910120600455565b828054620003b99062000481565b90600052602060002090601f016020900481019282620003dd576000855562000428565b82601f10620003f857805160ff191683800117855562000428565b8280016001018555821562000428579182015b82811115620004285782518255916020019190600101906200040b565b50620004369291506200043a565b5090565b5b808211156200043657600081556001016200043b565b60006020828403121562000463578081fd5b81516001600160a01b03811681146200047a578182fd5b9392505050565b600181811c908216806200049657607f821691505b60208210811415620004b857634e487b7160e01b600052602260045260246000fd5b50919050565b612dfa80620004ce6000396000f3fe6080604052600436106101c15760003560e01c80634e1273f4116100f7578063b48ab8b611610095578063e8a3d48511610064578063e8a3d48514610544578063e985e9c514610559578063f242432a14610579578063f2fde38b1461059957600080fd5b8063b48ab8b6146104a1578063bd85b039146104c1578063cd53d08e146104ee578063d2a6b51a1461052457600080fd5b8063731133e9116100d1578063731133e91461041a5780638da5cb5b1461043a57806395d89b411461046c578063a22cb4651461048157600080fd5b80634e1273f4146103b85780634f558e79146103e5578063715018a61461040557600080fd5b806320379ee5116101645780632eb2c2d61161013e5780632eb2c2d6146103455780633408e4701461036557806336a100d5146103785780633adf80b41461039857600080fd5b806320379ee5146102cd5780632693ebf2146102e25780632d0335ab1461030f57600080fd5b806306fdde03116101a057806306fdde031461024b5780630c53c51c1461026d5780630e89341c146102805780630f7e5970146102a057600080fd5b8062fdd58e146101c657806301ffc9a7146101f957806302fe530514610229575b600080fd5b3480156101d257600080fd5b506101e66101e1366004612548565b6105b9565b6040519081526020015b60405180910390f35b34801561020557600080fd5b506102196102143660046126e0565b610653565b60405190151581526020016101f0565b34801561023557600080fd5b50610249610244366004612734565b6106a3565b005b34801561025757600080fd5b506102606106f8565b6040516101f09190612975565b61026061027b3660046124ce565b610786565b34801561028c57600080fd5b5061026061029b366004612766565b610970565b3480156102ac57600080fd5b50610260604051806040016040528060018152602001603160f81b81525081565b3480156102d957600080fd5b506004546101e6565b3480156102ee57600080fd5b506101e66102fd366004612766565b60096020526000908152604090205481565b34801561031b57600080fd5b506101e661032a366004612257565b6001600160a01b031660009081526005602052604090205490565b34801561035157600080fd5b506102496103603660046122ab565b610b3e565b34801561037157600080fd5b50466101e6565b34801561038457600080fd5b506101e66103933660046125c7565b610be7565b3480156103a457600080fd5b506102496103b336600461277e565b610d4e565b3480156103c457600080fd5b506103d86103d336600461261e565b610ded565b6040516101f0919061293d565b3480156103f157600080fd5b50610219610400366004612766565b610f4e565b34801561041157600080fd5b50610249610f6d565b34801561042657600080fd5b50610249610435366004612573565b610fc2565b34801561044657600080fd5b506006546001600160a01b03165b6040516001600160a01b0390911681526020016101f0565b34801561047857600080fd5b50610260611042565b34801561048d57600080fd5b5061024961049c36600461249d565b61104f565b3480156104ad57600080fd5b506102496104bc366004612407565b611065565b3480156104cd57600080fd5b506101e66104dc366004612766565b60009081526009602052604090205490565b3480156104fa57600080fd5b50610454610509366004612766565b6008602052600090815260409020546001600160a01b031681565b34801561053057600080fd5b5061024961053f3660046123ba565b6111b1565b34801561055057600080fd5b50610260611276565b34801561056557600080fd5b50610219610574366004612273565b611296565b34801561058557600080fd5b50610249610594366004612354565b611366565b3480156105a557600080fd5b506102496105b4366004612257565b6113ff565b60006001600160a01b03831661062a5760405162461bcd60e51b815260206004820152602b60248201527f455243313135353a2062616c616e636520717565727920666f7220746865207a60448201526a65726f206164647265737360a81b60648201526084015b60405180910390fd5b506000818152602081815260408083206001600160a01b03861684529091529020545b92915050565b60006001600160e01b03198216636cdb3d1360e11b148061068457506001600160e01b031982166303a24d0760e21b145b8061064d57506301ffc9a760e01b6001600160e01b031983161461064d565b6106ab611513565b6001600160a01b03166106c66006546001600160a01b031690565b6001600160a01b0316146106ec5760405162461bcd60e51b815260040161062190612a5f565b6106f581611522565b50565b600b805461070590612bd5565b80601f016020809104026020016040519081016040528092919081815260200182805461073190612bd5565b801561077e5780601f106107535761010080835404028352916020019161077e565b820191906000526020600020905b81548152906001019060200180831161076157829003601f168201915b505050505081565b60408051606081810183526001600160a01b038816600081815260056020908152908590205484528301529181018690526107c48782878787611535565b61081a5760405162461bcd60e51b815260206004820152602160248201527f5369676e657220616e64207369676e617475726520646f206e6f74206d6174636044820152600d60fb1b6064820152608401610621565b6001600160a01b03871660009081526005602052604090205461083e906001611625565b6001600160a01b0388166000908152600560205260409081902091909155517f5845892132946850460bff5a0083f71031bc5bf9aadcd40f1de79423eac9b10b9061088e90899033908a90612871565b60405180910390a1600080306001600160a01b0316888a6040516020016108b692919061283a565b60408051601f19818403018152908290526108d09161281e565b6000604051808303816000865af19150503d806000811461090d576040519150601f19603f3d011682016040523d82523d6000602084013e610912565b606091505b5091509150816109645760405162461bcd60e51b815260206004820152601c60248201527f46756e6374696f6e2063616c6c206e6f74207375636365737366756c000000006044820152606401610621565b98975050505050505050565b6000818152600860205260409020546060906001600160a01b03166109e65760405162461bcd60e51b815260206004820152602660248201527f455243313135355472616461626c65237572693a204e4f4e4558495354454e546044820152652faa27a5a2a760d11b6064820152608401610621565b6000828152600a6020526040812080546109ff90612bd5565b80601f0160208091040260200160405190810160405280929190818152602001828054610a2b90612bd5565b8015610a785780601f10610a4d57610100808354040283529160200191610a78565b820191906000526020600020905b815481529060010190602001808311610a5b57829003601f168201915b50505050509050600081511115610b28576000838152600a602052604090208054610aa290612bd5565b80601f0160208091040260200160405190810160405280929190818152602001828054610ace90612bd5565b8015610b1b5780601f10610af057610100808354040283529160200191610b1b565b820191906000526020600020905b815481529060010190602001808311610afe57829003601f168201915b5050505050915050919050565b610b3183611631565b9392505050565b50919050565b610b46611513565b6001600160a01b0316856001600160a01b03161480610b6c5750610b6c85610574611513565b610bd35760405162461bcd60e51b815260206004820152603260248201527f455243313135353a207472616e736665722063616c6c6572206973206e6f74206044820152711bdddb995c881b9bdc88185c1c1c9bdd995960721b6064820152608401610621565b610be085858585856116c5565b5050505050565b6000610bf1611513565b6001600160a01b0316610c0c6006546001600160a01b031690565b6001600160a01b031614610c325760405162461bcd60e51b815260040161062190612a5f565b6000858152600860205260409020546001600160a01b031615610c975760405162461bcd60e51b815260206004820152601860248201527f746f6b656e205f696420616c72656164792065786973747300000000000000006044820152606401610621565b610c9f611513565b600086815260086020526040902080546001600160a01b0319166001600160a01b0392909216919091179055825115610d2b576000858152600a602090815260409091208451610cf1928601906120dc565b50847f6bb7ff708619ba0610cba295a58592e0451dee2622938c8755667688daf3529b84604051610d229190612975565b60405180910390a25b610d3786868685611888565b505050600082815260096020526040902055919050565b81610d57611513565b6000828152600860205260409020546001600160a01b03908116911614610d905760405162461bcd60e51b815260040161062190612b1d565b6000838152600a602090815260409091208351610daf928501906120dc565b50827f6bb7ff708619ba0610cba295a58592e0451dee2622938c8755667688daf3529b83604051610de09190612975565b60405180910390a2505050565b60608151835114610e525760405162461bcd60e51b815260206004820152602960248201527f455243313135353a206163636f756e747320616e6420696473206c656e677468604482015268040dad2e6dac2e8c6d60bb1b6064820152608401610621565b600083516001600160401b03811115610e7b57634e487b7160e01b600052604160045260246000fd5b604051908082528060200260200182016040528015610ea4578160200160208202803683370190505b50905060005b8451811015610f4657610f0b858281518110610ed657634e487b7160e01b600052603260045260246000fd5b6020026020010151858381518110610efe57634e487b7160e01b600052603260045260246000fd5b60200260200101516105b9565b828281518110610f2b57634e487b7160e01b600052603260045260246000fd5b6020908102919091010152610f3f81612c36565b9050610eaa565b509392505050565b6000818152600860205260408120546001600160a01b0316151561064d565b610f75611513565b6001600160a01b0316610f906006546001600160a01b031690565b6001600160a01b031614610fb65760405162461bcd60e51b815260040161062190612a5f565b610fc06000611963565b565b82610fcb611513565b6000828152600860205260409020546001600160a01b039081169116146110045760405162461bcd60e51b815260040161062190612b1d565b61101085858585611888565b6000848152600960205260409020546110299084611625565b6000948552600960205260409094209390935550505050565b600c805461070590612bd5565b61106161105a611513565b83836119b5565b5050565b60005b835181101561119e57600084828151811061109357634e487b7160e01b600052603260045260246000fd5b602002602001015190506110a5611513565b6000828152600860205260409020546001600160a01b039081169116146111265760405162461bcd60e51b815260206004820152602f60248201527f455243313135355472616461626c652362617463684d696e743a204f4e4c595f60448201526e10d491505513d497d0531313d5d151608a1b6064820152608401610621565b600084838151811061114857634e487b7160e01b600052603260045260246000fd5b6020026020010151905061117881600960008581526020019081526020016000205461162590919063ffffffff16565b60009283526009602052604090922091909155508061119681612c36565b915050611068565b506111ab84848484611a96565b50505050565b6001600160a01b03821661121c5760405162461bcd60e51b815260206004820152602c60248201527f455243313135355472616461626c652373657443726561746f723a20494e564160448201526b2624a22fa0a2222922a9a99760a11b6064820152608401610621565b60005b815181101561127157600082828151811061124a57634e487b7160e01b600052603260045260246000fd5b6020026020010151905061125e8482611c08565b508061126981612c36565b91505061121f565b505050565b6060604051806060016040528060398152602001612d8c60399139905090565b60075460405163c455279160e01b81526001600160a01b03848116600483015260009281169190841690829063c45527919060240160206040518083038186803b1580156112e357600080fd5b505afa1580156112f7573d6000803e3d6000fd5b505050506040513d601f19601f8201168201806040525081019061131b9190612718565b6001600160a01b0316141561133457600191505061064d565b6001600160a01b0380851660009081526001602090815260408083209387168352929052205460ff165b949350505050565b61136e611513565b6001600160a01b0316856001600160a01b03161480611394575061139485610574611513565b6113f25760405162461bcd60e51b815260206004820152602960248201527f455243313135353a2063616c6c6572206973206e6f74206f776e6572206e6f7260448201526808185c1c1c9bdd995960ba1b6064820152608401610621565b610be08585858585611c79565b611407611513565b6001600160a01b03166114226006546001600160a01b031690565b6001600160a01b0316146114485760405162461bcd60e51b815260040161062190612a5f565b6001600160a01b0381166114ad5760405162461bcd60e51b815260206004820152602660248201527f4f776e61626c653a206e6577206f776e657220697320746865207a65726f206160448201526564647265737360d01b6064820152608401610621565b6106f581611963565b60003330141561150d57600080368080601f0160208091040260200160405190810160405280939291908181526020018383808284376000920191909152505050503601516001600160a01b031691506115109050565b50335b90565b600061151d6114b6565b905090565b80516110619060029060208401906120dc565b60006001600160a01b03861661159b5760405162461bcd60e51b815260206004820152602560248201527f4e61746976654d6574615472616e73616374696f6e3a20494e56414c49445f5360448201526424a3a722a960d91b6064820152608401610621565b60016115ae6115a987611da1565b611e1e565b6040805160008152602081018083529290925260ff851690820152606081018690526080810185905260a0016020604051602081039080840390855afa1580156115fc573d6000803e3d6000fd5b505050602060405103516001600160a01b0316866001600160a01b031614905095945050505050565b6000610b318284612b91565b60606002805461164090612bd5565b80601f016020809104026020016040519081016040528092919081815260200182805461166c90612bd5565b80156116b95780601f1061168e576101008083540402835291602001916116b9565b820191906000526020600020905b81548152906001019060200180831161169c57829003601f168201915b50505050509050919050565b81518351146116e65760405162461bcd60e51b815260040161062190612a94565b6001600160a01b03841661170c5760405162461bcd60e51b8152600401610621906129d0565b6000611716611513565b905060005b845181101561181a57600085828151811061174657634e487b7160e01b600052603260045260246000fd5b60200260200101519050600085838151811061177257634e487b7160e01b600052603260045260246000fd5b602090810291909101810151600084815280835260408082206001600160a01b038e1683529093529190912054909150818110156117c25760405162461bcd60e51b815260040161062190612a15565b6000838152602081815260408083206001600160a01b038e8116855292528083208585039055908b168252812080548492906117ff908490612b91565b925050819055505050508061181390612c36565b905061171b565b50846001600160a01b0316866001600160a01b0316826001600160a01b03167f4a39dc06d4c0dbc64b70af90fd698a233a518aa5d07e595d983b8c0526c8f7fb878760405161186a929190612950565b60405180910390a4611880818787878787611e4e565b505050505050565b6001600160a01b0384166118ae5760405162461bcd60e51b815260040161062190612adc565b60006118b8611513565b90506118d3816000876118ca88611fb9565b610be088611fb9565b6000848152602081815260408083206001600160a01b038916845290915281208054859290611903908490612b91565b909155505060408051858152602081018590526001600160a01b0380881692600092918516917fc3d58168c5ae7397731d063d5bbf3d657854427343f4c083240f7aacaa2d0f62910160405180910390a4610be081600087878787612012565b600680546001600160a01b038381166001600160a01b0319831681179093556040519116919082907f8be0079c531659141344cd1fd0a4f28419497f9722a3daafe3b4186f6b6457e090600090a35050565b816001600160a01b0316836001600160a01b03161415611a295760405162461bcd60e51b815260206004820152602960248201527f455243313135353a2073657474696e6720617070726f76616c20737461747573604482015268103337b91039b2b63360b91b6064820152608401610621565b6001600160a01b03838116600081815260016020908152604080832094871680845294825291829020805460ff191686151590811790915591519182527f17307eab39ab6107e8899845ad3d59bd9653f200f220920489ca2b5937696c31910160405180910390a3505050565b6001600160a01b038416611abc5760405162461bcd60e51b815260040161062190612adc565b8151835114611add5760405162461bcd60e51b815260040161062190612a94565b6000611ae7611513565b905060005b8451811015611ba057838181518110611b1557634e487b7160e01b600052603260045260246000fd5b6020026020010151600080878481518110611b4057634e487b7160e01b600052603260045260246000fd5b602002602001015181526020019081526020016000206000886001600160a01b03166001600160a01b031681526020019081526020016000206000828254611b889190612b91565b90915550819050611b9881612c36565b915050611aec565b50846001600160a01b031660006001600160a01b0316826001600160a01b03167f4a39dc06d4c0dbc64b70af90fd698a233a518aa5d07e595d983b8c0526c8f7fb8787604051611bf1929190612950565b60405180910390a4610be081600087878787611e4e565b80611c11611513565b6000828152600860205260409020546001600160a01b03908116911614611c4a5760405162461bcd60e51b815260040161062190612b1d565b50600090815260086020526040902080546001600160a01b0319166001600160a01b0392909216919091179055565b6001600160a01b038416611c9f5760405162461bcd60e51b8152600401610621906129d0565b6000611ca9611513565b9050611cba8187876118ca88611fb9565b6000848152602081815260408083206001600160a01b038a16845290915290205483811015611cfb5760405162461bcd60e51b815260040161062190612a15565b6000858152602081815260408083206001600160a01b038b8116855292528083208785039055908816825281208054869290611d38908490612b91565b909155505060408051868152602081018690526001600160a01b03808916928a821692918616917fc3d58168c5ae7397731d063d5bbf3d657854427343f4c083240f7aacaa2d0f62910160405180910390a4611d98828888888888612012565b50505050505050565b6000604051806080016040528060438152602001612d496043913980516020918201208351848301516040808701518051908601209051611e01950193845260208401929092526001600160a01b03166040830152606082015260800190565b604051602081830303815290604052805190602001209050919050565b6000611e2960045490565b60405161190160f01b6020820152602281019190915260428101839052606201611e01565b6001600160a01b0384163b156118805760405163bc197c8160e01b81526001600160a01b0385169063bc197c8190611e9290899089908890889088906004016128a6565b602060405180830381600087803b158015611eac57600080fd5b505af1925050508015611edc575060408051601f3d908101601f19168201909252611ed9918101906126fc565b60015b611f8957611ee8612c7d565b806308c379a01415611f225750611efd612c94565b80611f085750611f24565b8060405162461bcd60e51b81526004016106219190612975565b505b60405162461bcd60e51b815260206004820152603460248201527f455243313135353a207472616e7366657220746f206e6f6e20455243313135356044820152732932b1b2b4bb32b91034b6b83632b6b2b73a32b960611b6064820152608401610621565b6001600160e01b0319811663bc197c8160e01b14611d985760405162461bcd60e51b815260040161062190612988565b6040805160018082528183019092526060916000919060208083019080368337019050509050828160008151811061200157634e487b7160e01b600052603260045260246000fd5b602090810291909101015292915050565b6001600160a01b0384163b156118805760405163f23a6e6160e01b81526001600160a01b0385169063f23a6e619061205690899089908890889088906004016128f8565b602060405180830381600087803b15801561207057600080fd5b505af19250505080156120a0575060408051601f3d908101601f1916820190925261209d918101906126fc565b60015b6120ac57611ee8612c7d565b6001600160e01b0319811663f23a6e6160e01b14611d985760405162461bcd60e51b815260040161062190612988565b8280546120e890612bd5565b90600052602060002090601f01602090048101928261210a5760008555612150565b82601f1061212357805160ff1916838001178555612150565b82800160010185558215612150579182015b82811115612150578251825591602001919060010190612135565b5061215c929150612160565b5090565b5b8082111561215c5760008155600101612161565b600082601f830112612185578081fd5b8135602061219282612b6e565b60405161219f8282612c0a565b8381528281019150858301600585901b870184018810156121be578586fd5b855b858110156121dc578135845292840192908401906001016121c0565b5090979650505050505050565b600082601f8301126121f9578081fd5b81356001600160401b0381111561221257612212612c67565b604051612229601f8301601f191660200182612c0a565b81815284602083860101111561223d578283fd5b816020850160208301379081016020019190915292915050565b600060208284031215612268578081fd5b8135610b3181612d1d565b60008060408385031215612285578081fd5b823561229081612d1d565b915060208301356122a081612d1d565b809150509250929050565b600080600080600060a086880312156122c2578081fd5b85356122cd81612d1d565b945060208601356122dd81612d1d565b935060408601356001600160401b03808211156122f8578283fd5b61230489838a01612175565b94506060880135915080821115612319578283fd5b61232589838a01612175565b9350608088013591508082111561233a578283fd5b50612347888289016121e9565b9150509295509295909350565b600080600080600060a0868803121561236b578081fd5b853561237681612d1d565b9450602086013561238681612d1d565b9350604086013592506060860135915060808601356001600160401b038111156123ae578182fd5b612347888289016121e9565b600080604083850312156123cc578182fd5b82356123d781612d1d565b915060208301356001600160401b038111156123f1578182fd5b6123fd85828601612175565b9150509250929050565b6000806000806080858703121561241c578384fd5b843561242781612d1d565b935060208501356001600160401b0380821115612442578485fd5b61244e88838901612175565b94506040870135915080821115612463578384fd5b61246f88838901612175565b93506060870135915080821115612484578283fd5b50612491878288016121e9565b91505092959194509250565b600080604083850312156124af578182fd5b82356124ba81612d1d565b9150602083013580151581146122a0578182fd5b600080600080600060a086880312156124e5578283fd5b85356124f081612d1d565b945060208601356001600160401b0381111561250a578384fd5b612516888289016121e9565b9450506040860135925060608601359150608086013560ff8116811461253a578182fd5b809150509295509295909350565b6000806040838503121561255a578182fd5b823561256581612d1d565b946020939093013593505050565b60008060008060808587031215612588578182fd5b843561259381612d1d565b9350602085013592506040850135915060608501356001600160401b038111156125bb578182fd5b612491878288016121e9565b600080600080600060a086880312156125de578283fd5b85356125e981612d1d565b9450602086013593506040860135925060608601356001600160401b0380821115612612578283fd5b61232589838a016121e9565b60008060408385031215612630578182fd5b82356001600160401b0380821115612646578384fd5b818501915085601f830112612659578384fd5b8135602061266682612b6e565b6040516126738282612c0a565b8381528281019150858301600585901b870184018b1015612692578889fd5b8896505b848710156126bd5780356126a981612d1d565b835260019690960195918301918301612696565b50965050860135925050808211156126d3578283fd5b506123fd85828601612175565b6000602082840312156126f1578081fd5b8135610b3181612d32565b60006020828403121561270d578081fd5b8151610b3181612d32565b600060208284031215612729578081fd5b8151610b3181612d1d565b600060208284031215612745578081fd5b81356001600160401b0381111561275a578182fd5b61135e848285016121e9565b600060208284031215612777578081fd5b5035919050565b60008060408385031215612790578182fd5b8235915060208301356001600160401b038111156127ac578182fd5b6123fd858286016121e9565b6000815180845260208085019450808401835b838110156127e7578151875295820195908201906001016127cb565b509495945050505050565b6000815180845261280a816020860160208601612ba9565b601f01601f19169290920160200192915050565b60008251612830818460208701612ba9565b9190910192915050565b6000835161284c818460208801612ba9565b60609390931b6bffffffffffffffffffffffff19169190920190815260140192915050565b6001600160a01b0384811682528316602082015260606040820181905260009061289d908301846127f2565b95945050505050565b6001600160a01b0386811682528516602082015260a0604082018190526000906128d2908301866127b8565b82810360608401526128e481866127b8565b9050828103608084015261096481856127f2565b6001600160a01b03868116825285166020820152604081018490526060810183905260a060808201819052600090612932908301846127f2565b979650505050505050565b602081526000610b3160208301846127b8565b60408152600061296360408301856127b8565b828103602084015261289d81856127b8565b602081526000610b3160208301846127f2565b60208082526028908201527f455243313135353a204552433131353552656365697665722072656a656374656040820152676420746f6b656e7360c01b606082015260800190565b60208082526025908201527f455243313135353a207472616e7366657220746f20746865207a65726f206164604082015264647265737360d81b606082015260800190565b6020808252602a908201527f455243313135353a20696e73756666696369656e742062616c616e636520666f60408201526939103a3930b739b332b960b11b606082015260800190565b6020808252818101527f4f776e61626c653a2063616c6c6572206973206e6f7420746865206f776e6572604082015260600190565b60208082526028908201527f455243313135353a2069647320616e6420616d6f756e7473206c656e677468206040820152670dad2e6dac2e8c6d60c31b606082015260800190565b60208082526021908201527f455243313135353a206d696e7420746f20746865207a65726f206164647265736040820152607360f81b606082015260800190565b60208082526031908201527f455243313135355472616461626c652363726561746f724f6e6c793a204f4e4c6040820152701657d0d491505513d497d0531313d5d151607a1b606082015260800190565b60006001600160401b03821115612b8757612b87612c67565b5060051b60200190565b60008219821115612ba457612ba4612c51565b500190565b60005b83811015612bc4578181015183820152602001612bac565b838111156111ab5750506000910152565b600181811c90821680612be957607f821691505b60208210811415610b3857634e487b7160e01b600052602260045260246000fd5b601f8201601f191681016001600160401b0381118282101715612c2f57612c2f612c67565b6040525050565b6000600019821415612c4a57612c4a612c51565b5060010190565b634e487b7160e01b600052601160045260246000fd5b634e487b7160e01b600052604160045260246000fd5b600060033d111561151057600481823e5160e01c90565b600060443d1015612ca25790565b6040516003193d81016004833e81513d6001600160401b038160248401118184111715612cd157505050505090565b8285019150815181811115612ce95750505050505090565b843d8701016020828501011115612d035750505050505090565b612d1260208286010187612c0a565b509095945050505050565b6001600160a01b03811681146106f557600080fd5b6001600160e01b0319811681146106f557600080fdfe4d6574615472616e73616374696f6e2875696e74323536206e6f6e63652c616464726573732066726f6d2c62797465732066756e6374696f6e5369676e61747572652968747470733a2f2f6372656174757265732d6170692e6f70656e7365612e696f2f636f6e74726163742f6f70656e7365612d65726331313535a264697066735822122040be924ffcd8c91c695a80d24df8dafe6ac9638664bd3a6ee8b3e057462ae1df64736f6c63430008040033454950373132446f6d61696e28737472696e67206e616d652c737472696e672076657273696f6e2c6164647265737320766572696679696e67436f6e74726163742c627974657333322073616c742968747470733a2f2f6372656174757265732d6170692e6f70656e7365612e696f2f6170692f6163636573736f72792f7b69647d",
  "linkReferences": {},
  "deployedLinkReferences": {}
}