{
  "_format": "hh-sol-artifact-1",
  "contractName": "ERC1155Tradable",
  "sourceName": "contracts/ERC1155Tradable.sol",
  "abi": [
    {
      "inputs": [
        {
          "internalType": "string",
          "name": "_name",
          "type": "string"
        },
        {
          "internalType": "string",
          "name": "_symbol",
          "type": "string"
        },
        {
          "internalType": "string",
          "name": "_uri",
          "type": "string"
        },
        {
          "internalType": "address",
          "name": "_proxyRegistryAddress",
          "type": "address"
        }
      ],
      "stateMutability": "nonpayable",
      "type": "constructor"
    },
    {
      "anonymous": false,
      "inputs": [
        {
          "indexed": true,
          "internalType": "address",
          "name": "account",
          "type": "address"
        },
        {
          "indexed": true,
          "internalType": "address",
          "name": "operator",
          "type": "address"
        },
        {
          "indexed": false,
          "internalType": "bool",
          "name": "approved",
          "type": "bool"
        }
      ],
      "name": "ApprovalForAll",
      "type": "event"
    },
    {
      "anonymous": false,
      "inputs": [
        {
          "indexed": false,
          "internalType": "address",
          "name": "userAddress",
          "type": "address"
        },
        {
          "indexed": false,
          "internalType": "address payable",
          "name": "relayerAddress",
          "type": "address"
        },
        {
          "indexed": false,
          "internalType": "bytes",
          "name": "functionSignature",
          "type": "bytes"
        }
      ],
      "name": "MetaTransactionExecuted",
      "type": "event"
    },
    {
      "anonymous": false,
      "inputs": [
        {
          "indexed": true,
          "internalType": "address",
          "name": "previousOwner",
          "type": "address"
        },
        {
          "indexed": true,
          "internalType": "address",
          "name": "newOwner",
          "type": "address"
        }
      ],
      "name": "OwnershipTransferred",
      "type": "event"
    },
    {
      "anonymous": false,
      "inputs": [
        {
          "indexed": true,
          "internalType": "address",
          "name": "operator",
          "type": "address"
        },
        {
          "indexed": true,
          "internalType": "address",
          "name": "from",
          "type": "address"
        },
        {
          "indexed": true,
          "internalType": "address",
          "name": "to",
          "type": "address"
        },
        {
          "indexed": false,
          "internalType": "uint256[]",
          "name": "ids",
          "type": "uint256[]"
        },
        {
          "indexed": false,
          "internalType": "uint256[]",
          "name": "values",
          "type": "uint256[]"
        }
      ],
      "name": "TransferBatch",
      "type": "event"
    },
    {
      "anonymous": false,
      "inputs": [
        {
          "indexed": true,
          "internalType": "address",
          "name": "operator",
          "type": "address"
        },
        {
          "indexed": true,
          "internalType": "address",
          "name": "from",
          "type": "address"
        },
        {
          "indexed": true,
          "internalType": "address",
          "name": "to",
          "type": "address"
        },
        {
          "indexed": false,
          "internalType": "uint256",
          "name": "id",
          "type": "uint256"
        },
        {
          "indexed": false,
          "internalType": "uint256",
          "name": "value",
          "type": "uint256"
        }
      ],
      "name": "TransferSingle",
      "type": "event"
    },
    {
      "anonymous": false,
      "inputs": [
        {
          "indexed": false,
          "internalType": "string",
          "name": "value",
          "type": "string"
        },
        {
          "indexed": true,
          "internalType": "uint256",
          "name": "id",
          "type": "uint256"
        }
      ],
      "name": "URI",
      "type": "event"
    },
    {
      "inputs": [],
      "name": "ERC712_VERSION",
      "outputs": [
        {
          "internalType": "string",
          "name": "",
          "type": "string"
        }
      ],
      "stateMutability": "view",
      "type": "function"
    },
    {
      "inputs": [
        {
          "internalType": "address",
          "name": "account",
          "type": "address"
        },
        {
          "internalType": "uint256",
          "name": "id",
          "type": "uint256"
        }
      ],
      "name": "balanceOf",
      "outputs": [
        {
          "internalType": "uint256",
          "name": "",
          "type": "uint256"
        }
      ],
      "stateMutability": "view",
      "type": "function"
    },
    {
      "inputs": [
        {
          "internalType": "address[]",
          "name": "accounts",
          "type": "address[]"
        },
        {
          "internalType": "uint256[]",
          "name": "ids",
          "type": "uint256[]"
        }
      ],
      "name": "balanceOfBatch",
      "outputs": [
        {
          "internalType": "uint256[]",
          "name": "",
          "type": "uint256[]"
        }
      ],
      "stateMutability": "view",
      "type": "function"
    },
    {
      "inputs": [
        {
          "internalType": "address",
          "name": "_to",
          "type": "address"
        },
        {
          "internalType": "uint256[]",
          "name": "_ids",
          "type": "uint256[]"
        },
        {
          "internalType": "uint256[]",
          "name": "_quantities",
          "type": "uint256[]"
        },
        {
          "internalType": "bytes",
          "name": "_data",
          "type": "bytes"
        }
      ],
      "name": "batchMint",
      "outputs": [],
      "stateMutability": "nonpayable",
      "type": "function"
    },
    {
      "inputs": [
        {
          "internalType": "address",
          "name": "_initialOwner",
          "type": "address"
        },
        {
          "internalType": "uint256",
          "name": "_id",
          "type": "uint256"
        },
        {
          "internalType": "uint256",
          "name": "_initialSupply",
          "type": "uint256"
        },
        {
          "internalType": "string",
          "name": "_uri",
          "type": "string"
        },
        {
          "internalType": "bytes",
          "name": "_data",
          "type": "bytes"
        }
      ],
      "name": "create",
      "outputs": [
        {
          "internalType": "uint256",
          "name": "",
          "type": "uint256"
        }
      ],
      "stateMutability": "nonpayable",
      "type": "function"
    },
    {
      "inputs": [
        {
          "internalType": "uint256",
          "name": "",
          "type": "uint256"
        }
      ],
      "name": "creators",
      "outputs": [
        {
          "internalType": "address",
          "name": "",
          "type": "address"
        }
      ],
      "stateMutability": "view",
      "type": "function"
    },
    {
      "inputs": [
        {
          "internalType": "address",
          "name": "userAddress",
          "type": "address"
        },
        {
          "internalType": "bytes",
          "name": "functionSignature",
          "type": "bytes"
        },
        {
          "internalType": "bytes32",
          "name": "sigR",
          "type": "bytes32"
        },
        {
          "internalType": "bytes32",
          "name": "sigS",
          "type": "bytes32"
        },
        {
          "internalType": "uint8",
          "name": "sigV",
          "type": "uint8"
        }
      ],
      "name": "executeMetaTransaction",
      "outputs": [
        {
          "internalType": "bytes",
          "name": "",
          "type": "bytes"
        }
      ],
      "stateMutability": "payable",
      "type": "function"
    },
    {
      "inputs": [
        {
          "internalType": "uint256",
          "name": "_id",
          "type": "uint256"
        }
      ],
      "name": "exists",
      "outputs": [
        {
          "internalType": "bool",
          "name": "",
          "type": "bool"
        }
      ],
      "stateMutability": "view",
      "type": "function"
    },
    {
      "inputs": [],
      "name": "getChainId",
      "outputs": [
        {
          "internalType": "uint256",
          "name": "",
          "type": "uint256"
        }
      ],
      "stateMutability": "view",
      "type": "function"
    },
    {
      "inputs": [],
      "name": "getDomainSeperator",
      "outputs": [
        {
          "internalType": "bytes32",
          "name": "",
          "type": "bytes32"
        }
      ],
      "stateMutability": "view",
      "type": "function"
    },
    {
      "inputs": [
        {
          "internalType": "address",
          "name": "user",
          "type": "address"
        }
      ],
      "name": "getNonce",
      "outputs": [
        {
          "internalType": "uint256",
          "name": "nonce",
          "type": "uint256"
        }
      ],
      "stateMutability": "view",
      "type": "function"
    },
    {
      "inputs": [
        {
          "internalType": "address",
          "name": "_owner",
          "type": "address"
        },
        {
          "internalType": "address",
          "name": "_operator",
          "type": "address"
        }
      ],
      "name": "isApprovedForAll",
      "outputs": [
        {
          "internalType": "bool",
          "name": "isOperator",
          "type": "bool"
        }
      ],
      "stateMutability": "view",
      "type": "function"
    },
    {
      "inputs": [
        {
          "internalType": "address",
          "name": "_to",
          "type": "address"
        },
        {
          "internalType": "uint256",
          "name": "_id",
          "type": "uint256"
        },
        {
          "internalType": "uint256",
          "name": "_quantity",
          "type": "uint256"
        },
        {
          "internalType": "bytes",
          "name": "_data",
          "type": "bytes"
        }
      ],
      "name": "mint",
      "outputs": [],
      "stateMutability": "nonpayable",
      "type": "function"
    },
    {
      "inputs": [],
      "name": "name",
      "outputs": [
        {
          "internalType": "string",
          "name": "",
          "type": "string"
        }
      ],
      "stateMutability": "view",
      "type": "function"
    },
    {
      "inputs": [],
      "name": "owner",
      "outputs": [
        {
          "internalType": "address",
          "name": "",
          "type": "address"
        }
      ],
      "stateMutability": "view",
      "type": "function"
    },
    {
      "inputs": [],
      "name": "renounceOwnership",
      "outputs": [],
      "stateMutability": "nonpayable",
      "type": "function"
    },
    {
      "inputs": [
        {
          "internalType": "address",
          "name": "from",
          "type": "address"
        },
        {
          "internalType": "address",
          "name": "to",
          "type": "address"
        },
        {
          "internalType": "uint256[]",
          "name": "ids",
          "type": "uint256[]"
        },
        {
          "internalType": "uint256[]",
          "name": "amounts",
          "type": "uint256[]"
        },
        {
          "internalType": "bytes",
          "name": "data",
          "type": "bytes"
        }
      ],
      "name": "safeBatchTransferFrom",
      "outputs": [],
      "stateMutability": "nonpayable",
      "type": "function"
    },
    {
      "inputs": [
        {
          "internalType": "address",
          "name": "from",
          "type": "address"
        },
        {
          "internalType": "address",
          "name": "to",
          "type": "address"
        },
        {
          "internalType": "uint256",
          "name": "id",
          "type": "uint256"
        },
        {
          "internalType": "uint256",
          "name": "amount",
          "type": "uint256"
        },
        {
          "internalType": "bytes",
          "name": "data",
          "type": "bytes"
        }
      ],
      "name": "safeTransferFrom",
      "outputs": [],
      "stateMutability": "nonpayable",
      "type": "function"
    },
    {
      "inputs": [
        {
          "internalType": "address",
          "name": "operator",
          "type": "address"
        },
        {
          "internalType": "bool",
          "name": "approved",
          "type": "bool"
        }
      ],
      "name": "setApprovalForAll",
      "outputs": [],
      "stateMutability": "nonpayable",
      "type": "function"
    },
    {
      "inputs": [
        {
          "internalType": "address",
          "name": "_to",
          "type": "address"
        },
        {
          "internalType": "uint256[]",
          "name": "_ids",
          "type": "uint256[]"
        }
      ],
      "name": "setCreator",
      "outputs": [],
      "stateMutability": "nonpayable",
      "type": "function"
    },
    {
      "inputs": [
        {
          "internalType": "uint256",
          "name": "_tokenId",
          "type": "uint256"
        },
        {
          "internalType": "string",
          "name": "_newURI",
          "type": "string"
        }
      ],
      "name": "setCustomURI",
      "outputs": [],
      "stateMutability": "nonpayable",
      "type": "function"
    },
    {
      "inputs": [
        {
          "internalType": "string",
          "name": "_newURI",
          "type": "string"
        }
      ],
      "name": "setURI",
      "outputs": [],
      "stateMutability": "nonpayable",
      "type": "function"
    },
    {
      "inputs": [
        {
          "internalType": "bytes4",
          "name": "interfaceId",
          "type": "bytes4"
        }
      ],
      "name": "supportsInterface",
      "outputs": [
        {
          "internalType": "bool",
          "name": "",
          "type": "bool"
        }
      ],
      "stateMutability": "view",
      "type": "function"
    },
    {
      "inputs": [],
      "name": "symbol",
      "outputs": [
        {
          "internalType": "string",
          "name": "",
          "type": "string"
        }
      ],
      "stateMutability": "view",
      "type": "function"
    },
    {
      "inputs": [
        {
          "internalType": "uint256",
          "name": "",
          "type": "uint256"
        }
      ],
      "name": "tokenSupply",
      "outputs": [
        {
          "internalType": "uint256",
          "name": "",
          "type": "uint256"
        }
      ],
      "stateMutability": "view",
      "type": "function"
    },
    {
      "inputs": [
        {
          "internalType": "uint256",
          "name": "_id",
          "type": "uint256"
        }
      ],
      "name": "totalSupply",
      "outputs": [
        {
          "internalType": "uint256",
          "name": "",
          "type": "uint256"
        }
      ],
      "stateMutability": "view",
      "type": "function"
    },
    {
      "inputs": [
        {
          "internalType": "address",
          "name": "newOwner",
          "type": "address"
        }
      ],
      "name": "transferOwnership",
      "outputs": [],
      "stateMutability": "nonpayable",
      "type": "function"
    },
    {
      "inputs": [
        {
          "internalType": "uint256",
          "name": "_id",
          "type": "uint256"
        }
      ],
      "name": "uri",
      "outputs": [
        {
          "internalType": "string",
          "name": "",
          "type": "string"
        }
      ],
      "stateMutability": "view",
      "type": "function"
    }
  ],
  "bytecode": "0x60806040526003805460ff191690553480156200001b57600080fd5b5060405162003376380380620033768339810160408190526200003e9162000495565b816200004a8162000150565b506200005f6200005962000169565b62000185565b83516200007490600b9060208701906200033c565b5082516200008a90600c9060208601906200033c565b50600780546001600160a01b0319166001600160a01b038316179055600b8054620001469190620000bb9062000543565b80601f0160208091040260200160405190810160405280929190818152602001828054620000e99062000543565b80156200013a5780601f106200010e576101008083540402835291602001916200013a565b820191906000526020600020905b8154815290600101906020018083116200011c57829003601f168201915b5050620001d792505050565b5050505062000596565b8051620001659060029060208401906200033c565b5050565b6000620001806200023b60201b620014761760201c565b905090565b600680546001600160a01b038381166001600160a01b0319831681179093556040519116919082907f8be0079c531659141344cd1fd0a4f28419497f9722a3daafe3b4186f6b6457e090600090a35050565b60035460ff1615620002205760405162461bcd60e51b815260206004820152600e60248201526d185b1c9958591e481a5b9a5d195960921b604482015260640160405180910390fd5b6200022b816200029a565b506003805460ff19166001179055565b6000333014156200029457600080368080601f0160208091040260200160405190810160405280939291908181526020018383808284376000920191909152505050503601516001600160a01b03169150620002979050565b50335b90565b6040518060800160405280604f815260200162003327604f9139805160209182012082519282019290922060408051808201825260018152603160f81b90840152805180840194909452838101919091527fc89efdaa54c0f20c7adf612882df0950f5a951637e0307cdcb4c672f298b8bc660608401523060808401524660a0808501919091528151808503909101815260c090930190528151910120600455565b8280546200034a9062000543565b90600052602060002090601f0160209004810192826200036e5760008555620003b9565b82601f106200038957805160ff1916838001178555620003b9565b82800160010185558215620003b9579182015b82811115620003b95782518255916020019190600101906200039c565b50620003c7929150620003cb565b5090565b5b80821115620003c75760008155600101620003cc565b600082601f830112620003f3578081fd5b81516001600160401b038082111562000410576200041062000580565b604051601f8301601f19908116603f011681019082821181831017156200043b576200043b62000580565b8160405283815260209250868385880101111562000457578485fd5b8491505b838210156200047a57858201830151818301840152908201906200045b565b838211156200048b57848385830101525b9695505050505050565b60008060008060808587031215620004ab578384fd5b84516001600160401b0380821115620004c2578586fd5b620004d088838901620003e2565b95506020870151915080821115620004e6578485fd5b620004f488838901620003e2565b945060408701519150808211156200050a578384fd5b506200051987828801620003e2565b606087015190935090506001600160a01b038116811462000538578182fd5b939692955090935050565b600181811c908216806200055857607f821691505b602082108114156200057a57634e487b7160e01b600052602260045260246000fd5b50919050565b634e487b7160e01b600052604160045260246000fd5b612d8180620005a66000396000f3fe6080604052600436106101b65760003560e01c80634e1273f4116100ec578063b48ab8b61161008a578063d2a6b51a11610064578063d2a6b51a14610519578063e985e9c514610539578063f242432a14610559578063f2fde38b1461057957600080fd5b8063b48ab8b614610496578063bd85b039146104b6578063cd53d08e146104e357600080fd5b8063731133e9116100c6578063731133e91461040f5780638da5cb5b1461042f57806395d89b4114610461578063a22cb4651461047657600080fd5b80634e1273f4146103ad5780634f558e79146103da578063715018a6146103fa57600080fd5b806320379ee5116101595780632eb2c2d6116101335780632eb2c2d61461033a5780633408e4701461035a57806336a100d51461036d5780633adf80b41461038d57600080fd5b806320379ee5146102c25780632693ebf2146102d75780632d0335ab1461030457600080fd5b806306fdde031161019557806306fdde03146102405780630c53c51c146102625780630e89341c146102755780630f7e59701461029557600080fd5b8062fdd58e146101bb57806301ffc9a7146101ee57806302fe53051461021e575b600080fd5b3480156101c757600080fd5b506101db6101d6366004612508565b610599565b6040519081526020015b60405180910390f35b3480156101fa57600080fd5b5061020e6102093660046126a0565b610633565b60405190151581526020016101e5565b34801561022a57600080fd5b5061023e6102393660046126f4565b610683565b005b34801561024c57600080fd5b506102556106d8565b6040516101e59190612935565b61025561027036600461248e565b610766565b34801561028157600080fd5b50610255610290366004612726565b610950565b3480156102a157600080fd5b50610255604051806040016040528060018152602001603160f81b81525081565b3480156102ce57600080fd5b506004546101db565b3480156102e357600080fd5b506101db6102f2366004612726565b60096020526000908152604090205481565b34801561031057600080fd5b506101db61031f366004612217565b6001600160a01b031660009081526005602052604090205490565b34801561034657600080fd5b5061023e61035536600461226b565b610b1e565b34801561036657600080fd5b50466101db565b34801561037957600080fd5b506101db610388366004612587565b610bc7565b34801561039957600080fd5b5061023e6103a836600461273e565b610d2e565b3480156103b957600080fd5b506103cd6103c83660046125de565b610dcd565b6040516101e591906128fd565b3480156103e657600080fd5b5061020e6103f5366004612726565b610f2e565b34801561040657600080fd5b5061023e610f4d565b34801561041b57600080fd5b5061023e61042a366004612533565b610fa2565b34801561043b57600080fd5b506006546001600160a01b03165b6040516001600160a01b0390911681526020016101e5565b34801561046d57600080fd5b50610255611022565b34801561048257600080fd5b5061023e61049136600461245d565b61102f565b3480156104a257600080fd5b5061023e6104b13660046123c7565b611045565b3480156104c257600080fd5b506101db6104d1366004612726565b60009081526009602052604090205490565b3480156104ef57600080fd5b506104496104fe366004612726565b6008602052600090815260409020546001600160a01b031681565b34801561052557600080fd5b5061023e61053436600461237a565b611191565b34801561054557600080fd5b5061020e610554366004612233565b611256565b34801561056557600080fd5b5061023e610574366004612314565b611326565b34801561058557600080fd5b5061023e610594366004612217565b6113bf565b60006001600160a01b03831661060a5760405162461bcd60e51b815260206004820152602b60248201527f455243313135353a2062616c616e636520717565727920666f7220746865207a60448201526a65726f206164647265737360a81b60648201526084015b60405180910390fd5b506000818152602081815260408083206001600160a01b03861684529091529020545b92915050565b60006001600160e01b03198216636cdb3d1360e11b148061066457506001600160e01b031982166303a24d0760e21b145b8061062d57506301ffc9a760e01b6001600160e01b031983161461062d565b61068b6114d3565b6001600160a01b03166106a66006546001600160a01b031690565b6001600160a01b0316146106cc5760405162461bcd60e51b815260040161060190612a1f565b6106d5816114e2565b50565b600b80546106e590612b95565b80601f016020809104026020016040519081016040528092919081815260200182805461071190612b95565b801561075e5780601f106107335761010080835404028352916020019161075e565b820191906000526020600020905b81548152906001019060200180831161074157829003601f168201915b505050505081565b60408051606081810183526001600160a01b038816600081815260056020908152908590205484528301529181018690526107a487828787876114f5565b6107fa5760405162461bcd60e51b815260206004820152602160248201527f5369676e657220616e64207369676e617475726520646f206e6f74206d6174636044820152600d60fb1b6064820152608401610601565b6001600160a01b03871660009081526005602052604090205461081e9060016115e5565b6001600160a01b0388166000908152600560205260409081902091909155517f5845892132946850460bff5a0083f71031bc5bf9aadcd40f1de79423eac9b10b9061086e90899033908a90612831565b60405180910390a1600080306001600160a01b0316888a6040516020016108969291906127fa565b60408051601f19818403018152908290526108b0916127de565b6000604051808303816000865af19150503d80600081146108ed576040519150601f19603f3d011682016040523d82523d6000602084013e6108f2565b606091505b5091509150816109445760405162461bcd60e51b815260206004820152601c60248201527f46756e6374696f6e2063616c6c206e6f74207375636365737366756c000000006044820152606401610601565b98975050505050505050565b6000818152600860205260409020546060906001600160a01b03166109c65760405162461bcd60e51b815260206004820152602660248201527f455243313135355472616461626c65237572693a204e4f4e4558495354454e546044820152652faa27a5a2a760d11b6064820152608401610601565b6000828152600a6020526040812080546109df90612b95565b80601f0160208091040260200160405190810160405280929190818152602001828054610a0b90612b95565b8015610a585780601f10610a2d57610100808354040283529160200191610a58565b820191906000526020600020905b815481529060010190602001808311610a3b57829003601f168201915b50505050509050600081511115610b08576000838152600a602052604090208054610a8290612b95565b80601f0160208091040260200160405190810160405280929190818152602001828054610aae90612b95565b8015610afb5780601f10610ad057610100808354040283529160200191610afb565b820191906000526020600020905b815481529060010190602001808311610ade57829003601f168201915b5050505050915050919050565b610b11836115f1565b9392505050565b50919050565b610b266114d3565b6001600160a01b0316856001600160a01b03161480610b4c5750610b4c856105546114d3565b610bb35760405162461bcd60e51b815260206004820152603260248201527f455243313135353a207472616e736665722063616c6c6572206973206e6f74206044820152711bdddb995c881b9bdc88185c1c1c9bdd995960721b6064820152608401610601565b610bc08585858585611685565b5050505050565b6000610bd16114d3565b6001600160a01b0316610bec6006546001600160a01b031690565b6001600160a01b031614610c125760405162461bcd60e51b815260040161060190612a1f565b6000858152600860205260409020546001600160a01b031615610c775760405162461bcd60e51b815260206004820152601860248201527f746f6b656e205f696420616c72656164792065786973747300000000000000006044820152606401610601565b610c7f6114d3565b600086815260086020526040902080546001600160a01b0319166001600160a01b0392909216919091179055825115610d0b576000858152600a602090815260409091208451610cd19286019061209c565b50847f6bb7ff708619ba0610cba295a58592e0451dee2622938c8755667688daf3529b84604051610d029190612935565b60405180910390a25b610d1786868685611848565b505050600082815260096020526040902055919050565b81610d376114d3565b6000828152600860205260409020546001600160a01b03908116911614610d705760405162461bcd60e51b815260040161060190612add565b6000838152600a602090815260409091208351610d8f9285019061209c565b50827f6bb7ff708619ba0610cba295a58592e0451dee2622938c8755667688daf3529b83604051610dc09190612935565b60405180910390a2505050565b60608151835114610e325760405162461bcd60e51b815260206004820152602960248201527f455243313135353a206163636f756e747320616e6420696473206c656e677468604482015268040dad2e6dac2e8c6d60bb1b6064820152608401610601565b600083516001600160401b03811115610e5b57634e487b7160e01b600052604160045260246000fd5b604051908082528060200260200182016040528015610e84578160200160208202803683370190505b50905060005b8451811015610f2657610eeb858281518110610eb657634e487b7160e01b600052603260045260246000fd5b6020026020010151858381518110610ede57634e487b7160e01b600052603260045260246000fd5b6020026020010151610599565b828281518110610f0b57634e487b7160e01b600052603260045260246000fd5b6020908102919091010152610f1f81612bf6565b9050610e8a565b509392505050565b6000818152600860205260408120546001600160a01b0316151561062d565b610f556114d3565b6001600160a01b0316610f706006546001600160a01b031690565b6001600160a01b031614610f965760405162461bcd60e51b815260040161060190612a1f565b610fa06000611923565b565b82610fab6114d3565b6000828152600860205260409020546001600160a01b03908116911614610fe45760405162461bcd60e51b815260040161060190612add565b610ff085858585611848565b60008481526009602052604090205461100990846115e5565b6000948552600960205260409094209390935550505050565b600c80546106e590612b95565b61104161103a6114d3565b8383611975565b5050565b60005b835181101561117e57600084828151811061107357634e487b7160e01b600052603260045260246000fd5b602002602001015190506110856114d3565b6000828152600860205260409020546001600160a01b039081169116146111065760405162461bcd60e51b815260206004820152602f60248201527f455243313135355472616461626c652362617463684d696e743a204f4e4c595f60448201526e10d491505513d497d0531313d5d151608a1b6064820152608401610601565b600084838151811061112857634e487b7160e01b600052603260045260246000fd5b602002602001015190506111588160096000858152602001908152602001600020546115e590919063ffffffff16565b60009283526009602052604090922091909155508061117681612bf6565b915050611048565b5061118b84848484611a56565b50505050565b6001600160a01b0382166111fc5760405162461bcd60e51b815260206004820152602c60248201527f455243313135355472616461626c652373657443726561746f723a20494e564160448201526b2624a22fa0a2222922a9a99760a11b6064820152608401610601565b60005b815181101561125157600082828151811061122a57634e487b7160e01b600052603260045260246000fd5b6020026020010151905061123e8482611bc8565b508061124981612bf6565b9150506111ff565b505050565b60075460405163c455279160e01b81526001600160a01b03848116600483015260009281169190841690829063c45527919060240160206040518083038186803b1580156112a357600080fd5b505afa1580156112b7573d6000803e3d6000fd5b505050506040513d601f19601f820116820180604052508101906112db91906126d8565b6001600160a01b031614156112f457600191505061062d565b6001600160a01b0380851660009081526001602090815260408083209387168352929052205460ff165b949350505050565b61132e6114d3565b6001600160a01b0316856001600160a01b031614806113545750611354856105546114d3565b6113b25760405162461bcd60e51b815260206004820152602960248201527f455243313135353a2063616c6c6572206973206e6f74206f776e6572206e6f7260448201526808185c1c1c9bdd995960ba1b6064820152608401610601565b610bc08585858585611c39565b6113c76114d3565b6001600160a01b03166113e26006546001600160a01b031690565b6001600160a01b0316146114085760405162461bcd60e51b815260040161060190612a1f565b6001600160a01b03811661146d5760405162461bcd60e51b815260206004820152602660248201527f4f776e61626c653a206e6577206f776e657220697320746865207a65726f206160448201526564647265737360d01b6064820152608401610601565b6106d581611923565b6000333014156114cd57600080368080601f0160208091040260200160405190810160405280939291908181526020018383808284376000920191909152505050503601516001600160a01b031691506114d09050565b50335b90565b60006114dd611476565b905090565b805161104190600290602084019061209c565b60006001600160a01b03861661155b5760405162461bcd60e51b815260206004820152602560248201527f4e61746976654d6574615472616e73616374696f6e3a20494e56414c49445f5360448201526424a3a722a960d91b6064820152608401610601565b600161156e61156987611d61565b611dde565b6040805160008152602081018083529290925260ff851690820152606081018690526080810185905260a0016020604051602081039080840390855afa1580156115bc573d6000803e3d6000fd5b505050602060405103516001600160a01b0316866001600160a01b031614905095945050505050565b6000610b118284612b51565b60606002805461160090612b95565b80601f016020809104026020016040519081016040528092919081815260200182805461162c90612b95565b80156116795780601f1061164e57610100808354040283529160200191611679565b820191906000526020600020905b81548152906001019060200180831161165c57829003601f168201915b50505050509050919050565b81518351146116a65760405162461bcd60e51b815260040161060190612a54565b6001600160a01b0384166116cc5760405162461bcd60e51b815260040161060190612990565b60006116d66114d3565b905060005b84518110156117da57600085828151811061170657634e487b7160e01b600052603260045260246000fd5b60200260200101519050600085838151811061173257634e487b7160e01b600052603260045260246000fd5b602090810291909101810151600084815280835260408082206001600160a01b038e1683529093529190912054909150818110156117825760405162461bcd60e51b8152600401610601906129d5565b6000838152602081815260408083206001600160a01b038e8116855292528083208585039055908b168252812080548492906117bf908490612b51565b92505081905550505050806117d390612bf6565b90506116db565b50846001600160a01b0316866001600160a01b0316826001600160a01b03167f4a39dc06d4c0dbc64b70af90fd698a233a518aa5d07e595d983b8c0526c8f7fb878760405161182a929190612910565b60405180910390a4611840818787878787611e0e565b505050505050565b6001600160a01b03841661186e5760405162461bcd60e51b815260040161060190612a9c565b60006118786114d3565b90506118938160008761188a88611f79565b610bc088611f79565b6000848152602081815260408083206001600160a01b0389168452909152812080548592906118c3908490612b51565b909155505060408051858152602081018590526001600160a01b0380881692600092918516917fc3d58168c5ae7397731d063d5bbf3d657854427343f4c083240f7aacaa2d0f62910160405180910390a4610bc081600087878787611fd2565b600680546001600160a01b038381166001600160a01b0319831681179093556040519116919082907f8be0079c531659141344cd1fd0a4f28419497f9722a3daafe3b4186f6b6457e090600090a35050565b816001600160a01b0316836001600160a01b031614156119e95760405162461bcd60e51b815260206004820152602960248201527f455243313135353a2073657474696e6720617070726f76616c20737461747573604482015268103337b91039b2b63360b91b6064820152608401610601565b6001600160a01b03838116600081815260016020908152604080832094871680845294825291829020805460ff191686151590811790915591519182527f17307eab39ab6107e8899845ad3d59bd9653f200f220920489ca2b5937696c31910160405180910390a3505050565b6001600160a01b038416611a7c5760405162461bcd60e51b815260040161060190612a9c565b8151835114611a9d5760405162461bcd60e51b815260040161060190612a54565b6000611aa76114d3565b905060005b8451811015611b6057838181518110611ad557634e487b7160e01b600052603260045260246000fd5b6020026020010151600080878481518110611b0057634e487b7160e01b600052603260045260246000fd5b602002602001015181526020019081526020016000206000886001600160a01b03166001600160a01b031681526020019081526020016000206000828254611b489190612b51565b90915550819050611b5881612bf6565b915050611aac565b50846001600160a01b031660006001600160a01b0316826001600160a01b03167f4a39dc06d4c0dbc64b70af90fd698a233a518aa5d07e595d983b8c0526c8f7fb8787604051611bb1929190612910565b60405180910390a4610bc081600087878787611e0e565b80611bd16114d3565b6000828152600860205260409020546001600160a01b03908116911614611c0a5760405162461bcd60e51b815260040161060190612add565b50600090815260086020526040902080546001600160a01b0319166001600160a01b0392909216919091179055565b6001600160a01b038416611c5f5760405162461bcd60e51b815260040161060190612990565b6000611c696114d3565b9050611c7a81878761188a88611f79565b6000848152602081815260408083206001600160a01b038a16845290915290205483811015611cbb5760405162461bcd60e51b8152600401610601906129d5565b6000858152602081815260408083206001600160a01b038b8116855292528083208785039055908816825281208054869290611cf8908490612b51565b909155505060408051868152602081018690526001600160a01b03808916928a821692918616917fc3d58168c5ae7397731d063d5bbf3d657854427343f4c083240f7aacaa2d0f62910160405180910390a4611d58828888888888611fd2565b50505050505050565b6000604051806080016040528060438152602001612d096043913980516020918201208351848301516040808701518051908601209051611dc1950193845260208401929092526001600160a01b03166040830152606082015260800190565b604051602081830303815290604052805190602001209050919050565b6000611de960045490565b60405161190160f01b6020820152602281019190915260428101839052606201611dc1565b6001600160a01b0384163b156118405760405163bc197c8160e01b81526001600160a01b0385169063bc197c8190611e529089908990889088908890600401612866565b602060405180830381600087803b158015611e6c57600080fd5b505af1925050508015611e9c575060408051601f3d908101601f19168201909252611e99918101906126bc565b60015b611f4957611ea8612c3d565b806308c379a01415611ee25750611ebd612c54565b80611ec85750611ee4565b8060405162461bcd60e51b81526004016106019190612935565b505b60405162461bcd60e51b815260206004820152603460248201527f455243313135353a207472616e7366657220746f206e6f6e20455243313135356044820152732932b1b2b4bb32b91034b6b83632b6b2b73a32b960611b6064820152608401610601565b6001600160e01b0319811663bc197c8160e01b14611d585760405162461bcd60e51b815260040161060190612948565b60408051600180825281830190925260609160009190602080830190803683370190505090508281600081518110611fc157634e487b7160e01b600052603260045260246000fd5b602090810291909101015292915050565b6001600160a01b0384163b156118405760405163f23a6e6160e01b81526001600160a01b0385169063f23a6e619061201690899089908890889088906004016128b8565b602060405180830381600087803b15801561203057600080fd5b505af1925050508015612060575060408051601f3d908101601f1916820190925261205d918101906126bc565b60015b61206c57611ea8612c3d565b6001600160e01b0319811663f23a6e6160e01b14611d585760405162461bcd60e51b815260040161060190612948565b8280546120a890612b95565b90600052602060002090601f0160209004810192826120ca5760008555612110565b82601f106120e357805160ff1916838001178555612110565b82800160010185558215612110579182015b828111156121105782518255916020019190600101906120f5565b5061211c929150612120565b5090565b5b8082111561211c5760008155600101612121565b600082601f830112612145578081fd5b8135602061215282612b2e565b60405161215f8282612bca565b8381528281019150858301600585901b8701840188101561217e578586fd5b855b8581101561219c57813584529284019290840190600101612180565b5090979650505050505050565b600082601f8301126121b9578081fd5b81356001600160401b038111156121d2576121d2612c27565b6040516121e9601f8301601f191660200182612bca565b8181528460208386010111156121fd578283fd5b816020850160208301379081016020019190915292915050565b600060208284031215612228578081fd5b8135610b1181612cdd565b60008060408385031215612245578081fd5b823561225081612cdd565b9150602083013561226081612cdd565b809150509250929050565b600080600080600060a08688031215612282578081fd5b853561228d81612cdd565b9450602086013561229d81612cdd565b935060408601356001600160401b03808211156122b8578283fd5b6122c489838a01612135565b945060608801359150808211156122d9578283fd5b6122e589838a01612135565b935060808801359150808211156122fa578283fd5b50612307888289016121a9565b9150509295509295909350565b600080600080600060a0868803121561232b578081fd5b853561233681612cdd565b9450602086013561234681612cdd565b9350604086013592506060860135915060808601356001600160401b0381111561236e578182fd5b612307888289016121a9565b6000806040838503121561238c578182fd5b823561239781612cdd565b915060208301356001600160401b038111156123b1578182fd5b6123bd85828601612135565b9150509250929050565b600080600080608085870312156123dc578384fd5b84356123e781612cdd565b935060208501356001600160401b0380821115612402578485fd5b61240e88838901612135565b94506040870135915080821115612423578384fd5b61242f88838901612135565b93506060870135915080821115612444578283fd5b50612451878288016121a9565b91505092959194509250565b6000806040838503121561246f578182fd5b823561247a81612cdd565b915060208301358015158114612260578182fd5b600080600080600060a086880312156124a5578283fd5b85356124b081612cdd565b945060208601356001600160401b038111156124ca578384fd5b6124d6888289016121a9565b9450506040860135925060608601359150608086013560ff811681146124fa578182fd5b809150509295509295909350565b6000806040838503121561251a578182fd5b823561252581612cdd565b946020939093013593505050565b60008060008060808587031215612548578182fd5b843561255381612cdd565b9350602085013592506040850135915060608501356001600160401b0381111561257b578182fd5b612451878288016121a9565b600080600080600060a0868803121561259e578283fd5b85356125a981612cdd565b9450602086013593506040860135925060608601356001600160401b03808211156125d2578283fd5b6122e589838a016121a9565b600080604083850312156125f0578182fd5b82356001600160401b0380821115612606578384fd5b818501915085601f830112612619578384fd5b8135602061262682612b2e565b6040516126338282612bca565b8381528281019150858301600585901b870184018b1015612652578889fd5b8896505b8487101561267d57803561266981612cdd565b835260019690960195918301918301612656565b5096505086013592505080821115612693578283fd5b506123bd85828601612135565b6000602082840312156126b1578081fd5b8135610b1181612cf2565b6000602082840312156126cd578081fd5b8151610b1181612cf2565b6000602082840312156126e9578081fd5b8151610b1181612cdd565b600060208284031215612705578081fd5b81356001600160401b0381111561271a578182fd5b61131e848285016121a9565b600060208284031215612737578081fd5b5035919050565b60008060408385031215612750578182fd5b8235915060208301356001600160401b0381111561276c578182fd5b6123bd858286016121a9565b6000815180845260208085019450808401835b838110156127a75781518752958201959082019060010161278b565b509495945050505050565b600081518084526127ca816020860160208601612b69565b601f01601f19169290920160200192915050565b600082516127f0818460208701612b69565b9190910192915050565b6000835161280c818460208801612b69565b60609390931b6bffffffffffffffffffffffff19169190920190815260140192915050565b6001600160a01b0384811682528316602082015260606040820181905260009061285d908301846127b2565b95945050505050565b6001600160a01b0386811682528516602082015260a06040820181905260009061289290830186612778565b82810360608401526128a48186612778565b9050828103608084015261094481856127b2565b6001600160a01b03868116825285166020820152604081018490526060810183905260a0608082018190526000906128f2908301846127b2565b979650505050505050565b602081526000610b116020830184612778565b6040815260006129236040830185612778565b828103602084015261285d8185612778565b602081526000610b1160208301846127b2565b60208082526028908201527f455243313135353a204552433131353552656365697665722072656a656374656040820152676420746f6b656e7360c01b606082015260800190565b60208082526025908201527f455243313135353a207472616e7366657220746f20746865207a65726f206164604082015264647265737360d81b606082015260800190565b6020808252602a908201527f455243313135353a20696e73756666696369656e742062616c616e636520666f60408201526939103a3930b739b332b960b11b606082015260800190565b6020808252818101527f4f776e61626c653a2063616c6c6572206973206e6f7420746865206f776e6572604082015260600190565b60208082526028908201527f455243313135353a2069647320616e6420616d6f756e7473206c656e677468206040820152670dad2e6dac2e8c6d60c31b606082015260800190565b60208082526021908201527f455243313135353a206d696e7420746f20746865207a65726f206164647265736040820152607360f81b606082015260800190565b60208082526031908201527f455243313135355472616461626c652363726561746f724f6e6c793a204f4e4c6040820152701657d0d491505513d497d0531313d5d151607a1b606082015260800190565b60006001600160401b03821115612b4757612b47612c27565b5060051b60200190565b60008219821115612b6457612b64612c11565b500190565b60005b83811015612b84578181015183820152602001612b6c565b8381111561118b5750506000910152565b600181811c90821680612ba957607f821691505b60208210811415610b1857634e487b7160e01b600052602260045260246000fd5b601f8201601f191681016001600160401b0381118282101715612bef57612bef612c27565b6040525050565b6000600019821415612c0a57612c0a612c11565b5060010190565b634e487b7160e01b600052601160045260246000fd5b634e487b7160e01b600052604160045260246000fd5b600060033d11156114d057600481823e5160e01c90565b600060443d1015612c625790565b6040516003193d81016004833e81513d6001600160401b038160248401118184111715612c9157505050505090565b8285019150815181811115612ca95750505050505090565b843d8701016020828501011115612cc35750505050505090565b612cd260208286010187612bca565b509095945050505050565b6001600160a01b03811681146106d557600080fd5b6001600160e01b0319811681146106d557600080fdfe4d6574615472616e73616374696f6e2875696e74323536206e6f6e63652c616464726573732066726f6d2c62797465732066756e6374696f6e5369676e617475726529a264697066735822122082bde79963d05a3bd4b4a67a5558a1177020181cbfa2ec2814a8b9796ac8b0b564736f6c63430008040033454950373132446f6d61696e28737472696e67206e616d652c737472696e672076657273696f6e2c6164647265737320766572696679696e67436f6e74726163742c627974657333322073616c7429",
  "linkReferences": {},
  "deployedLinkReferences": {}
}