{
  "_format": "hh-sol-artifact-1",
  "contractName": "CreatureAccessoryFactory",
  "sourceName": "contracts/ShapeAccessoryFactory.sol",
  "abi": [
    {
      "inputs": [
        {
          "internalType": "address",
          "name": "_proxyRegistryAddress",
          "type": "address"
        },
        {
          "internalType": "address",
          "name": "_nftAddress",
          "type": "address"
        },
        {
          "internalType": "address",
          "name": "_lootBoxAddress",
          "type": "address"
        }
      ],
      "stateMutability": "nonpayable",
      "type": "constructor"
    },
    {
      "anonymous": false,
      "inputs": [
        {
          "indexed": true,
          "internalType": "address",
          "name": "previousOwner",
          "type": "address"
        },
        {
          "indexed": true,
          "internalType": "address",
          "name": "newOwner",
          "type": "address"
        }
      ],
      "name": "OwnershipTransferred",
      "type": "event"
    },
    {
      "inputs": [],
      "name": "BASIC_LOOTBOX",
      "outputs": [
        {
          "internalType": "uint256",
          "name": "",
          "type": "uint256"
        }
      ],
      "stateMutability": "view",
      "type": "function"
    },
    {
      "inputs": [],
      "name": "GOLD_LOOTBOX",
      "outputs": [
        {
          "internalType": "uint256",
          "name": "",
          "type": "uint256"
        }
      ],
      "stateMutability": "view",
      "type": "function"
    },
    {
      "inputs": [],
      "name": "NUM_LOOTBOX_OPTIONS",
      "outputs": [
        {
          "internalType": "uint256",
          "name": "",
          "type": "uint256"
        }
      ],
      "stateMutability": "view",
      "type": "function"
    },
    {
      "inputs": [],
      "name": "NUM_OPTIONS",
      "outputs": [
        {
          "internalType": "uint256",
          "name": "",
          "type": "uint256"
        }
      ],
      "stateMutability": "view",
      "type": "function"
    },
    {
      "inputs": [],
      "name": "PREMIUM_LOOTBOX",
      "outputs": [
        {
          "internalType": "uint256",
          "name": "",
          "type": "uint256"
        }
      ],
      "stateMutability": "view",
      "type": "function"
    },
    {
      "inputs": [
        {
          "internalType": "address",
          "name": "_owner",
          "type": "address"
        },
        {
          "internalType": "uint256",
          "name": "_optionId",
          "type": "uint256"
        }
      ],
      "name": "balanceOf",
      "outputs": [
        {
          "internalType": "uint256",
          "name": "",
          "type": "uint256"
        }
      ],
      "stateMutability": "view",
      "type": "function"
    },
    {
      "inputs": [
        {
          "internalType": "uint256",
          "name": "_optionId",
          "type": "uint256"
        },
        {
          "internalType": "uint256",
          "name": "_amount",
          "type": "uint256"
        }
      ],
      "name": "canMint",
      "outputs": [
        {
          "internalType": "bool",
          "name": "",
          "type": "bool"
        }
      ],
      "stateMutability": "view",
      "type": "function"
    },
    {
      "inputs": [],
      "name": "factorySchemaName",
      "outputs": [
        {
          "internalType": "string",
          "name": "",
          "type": "string"
        }
      ],
      "stateMutability": "pure",
      "type": "function"
    },
    {
      "inputs": [],
      "name": "lootBoxAddress",
      "outputs": [
        {
          "internalType": "address",
          "name": "",
          "type": "address"
        }
      ],
      "stateMutability": "view",
      "type": "function"
    },
    {
      "inputs": [
        {
          "internalType": "uint256",
          "name": "_optionId",
          "type": "uint256"
        },
        {
          "internalType": "address",
          "name": "_toAddress",
          "type": "address"
        },
        {
          "internalType": "uint256",
          "name": "_amount",
          "type": "uint256"
        },
        {
          "internalType": "bytes",
          "name": "_data",
          "type": "bytes"
        }
      ],
      "name": "mint",
      "outputs": [],
      "stateMutability": "nonpayable",
      "type": "function"
    },
    {
      "inputs": [],
      "name": "name",
      "outputs": [
        {
          "internalType": "string",
          "name": "",
          "type": "string"
        }
      ],
      "stateMutability": "pure",
      "type": "function"
    },
    {
      "inputs": [],
      "name": "nftAddress",
      "outputs": [
        {
          "internalType": "address",
          "name": "",
          "type": "address"
        }
      ],
      "stateMutability": "view",
      "type": "function"
    },
    {
      "inputs": [],
      "name": "numOptions",
      "outputs": [
        {
          "internalType": "uint256",
          "name": "",
          "type": "uint256"
        }
      ],
      "stateMutability": "pure",
      "type": "function"
    },
    {
      "inputs": [],
      "name": "owner",
      "outputs": [
        {
          "internalType": "address",
          "name": "",
          "type": "address"
        }
      ],
      "stateMutability": "view",
      "type": "function"
    },
    {
      "inputs": [],
      "name": "proxyRegistryAddress",
      "outputs": [
        {
          "internalType": "address",
          "name": "",
          "type": "address"
        }
      ],
      "stateMutability": "view",
      "type": "function"
    },
    {
      "inputs": [],
      "name": "renounceOwnership",
      "outputs": [],
      "stateMutability": "nonpayable",
      "type": "function"
    },
    {
      "inputs": [],
      "name": "supportsFactoryInterface",
      "outputs": [
        {
          "internalType": "bool",
          "name": "",
          "type": "bool"
        }
      ],
      "stateMutability": "pure",
      "type": "function"
    },
    {
      "inputs": [],
      "name": "symbol",
      "outputs": [
        {
          "internalType": "string",
          "name": "",
          "type": "string"
        }
      ],
      "stateMutability": "pure",
      "type": "function"
    },
    {
      "inputs": [
        {
          "internalType": "address",
          "name": "newOwner",
          "type": "address"
        }
      ],
      "name": "transferOwnership",
      "outputs": [],
      "stateMutability": "nonpayable",
      "type": "function"
    },
    {
      "inputs": [
        {
          "internalType": "uint256",
          "name": "_optionId",
          "type": "uint256"
        }
      ],
      "name": "uri",
      "outputs": [
        {
          "internalType": "string",
          "name": "",
          "type": "string"
        }
      ],
      "stateMutability": "pure",
      "type": "function"
    }
  ],
  "bytecode": "0x608060405234801561001057600080fd5b506040516200127738038062001277833981016040819052610031916100ec565b61003a33610080565b60018055600280546001600160a01b039485166001600160a01b03199182161790915560038054938516938216939093179092556004805491909316911617905561012e565b600080546001600160a01b038381166001600160a01b0319831681178455604051919092169283917f8be0079c531659141344cd1fd0a4f28419497f9722a3daafe3b4186f6b6457e09190a35050565b80516001600160a01b03811681146100e757600080fd5b919050565b600080600060608486031215610100578283fd5b610109846100d0565b9250610117602085016100d0565b9150610125604085016100d0565b90509250925092565b611139806200013e6000396000f3fe608060405234801561001057600080fd5b506004361061012b5760003560e01c80638531b06b116100ad578063c311c52311610071578063c311c52314610266578063c77b66c21461026d578063cd7c032614610280578063f21af56d14610293578063f2fde38b1461029b57600080fd5b80638531b06b146102115780638da5cb5b1461022457806395d89b4114610235578063a01d9ee414610256578063c0cdf20f1461025e57600080fd5b806345df5787116100f457806345df5787146101a95780634b97aed9146101cc57806350c9b436146101d45780635bf8633a146101dc578063715018a61461020757600080fd5b8062fdd58e1461013057806306fdde03146101565780630e89341c1461016b57806322e1dea91461017e5780633db62e2c146101a1575b600080fd5b61014361013e366004610d5b565b6102ae565b6040519081526020015b60405180910390f35b61015e61045c565b60405161014d9190610fc9565b61015e610179366004610dc2565b61047c565b61019161018c366004610e83565b6104c7565b604051901515815260200161014d565b6101436104db565b6040805180820190915260078152664552433131353560c81b602082015261015e565b6101436104ea565b6101436104fd565b6003546101ef906001600160a01b031681565b6040516001600160a01b03909116815260200161014d565b61020f610509565b005b6004546101ef906001600160a01b031681565b6000546001600160a01b03166101ef565b60408051808201909152600581526404f534341560dc1b602082015261015e565b610143600381565b610143610574565b6001610191565b61020f61027b366004610df2565b610580565b6002546101ef906001600160a01b031681565b610143610628565b61020f6102a9366004610d3f565b610634565b60006006821015610397576102c2836106ff565b1580156102dd57506004546001600160a01b03848116911614155b156102ea57506000610456565b6003546001600160a01b031660008162fdd58e61030f6000546001600160a01b031690565b6040516001600160e01b031960e084901b1681526001600160a01b0390911660048201526024810187905260440160206040518083038186803b15801561035557600080fd5b505afa158015610369573d6000803e3d6000fd5b505050506040513d601f19601f8201168201806040525081019061038d9190610dda565b9250610456915050565b6103a0836106ff565b6103ac57506000610456565b60006103b9600684611008565b6004805460405163bd85b03960e01b81529293506001600160a01b031691600091839163bd85b039916103f29187910190815260200190565b60206040518083038186803b15801561040a57600080fd5b505afa15801561041e573d6000803e3d6000fd5b505050506040513d601f19601f820116820180604052508101906104429190610dda565b9050610450600019826107e8565b93505050505b92915050565b60606040518060600160405280602381526020016110bc60239139905090565b60606040518060600160405280602581526020016110df602591396104a0836107f4565b6040516020016104b1929190610ed0565b6040516020818303038152906040529050919050565b60006104d4338484610916565b9392505050565b6104e760036006610fdc565b81565b60006104f860066003610fdc565b905090565b6104e760066002610fdc565b6000546001600160a01b031633146105685760405162461bcd60e51b815260206004820181905260248201527f4f776e61626c653a2063616c6c6572206973206e6f7420746865206f776e657260448201526064015b60405180910390fd5b6105726000610937565b565b6104e760066000610fdc565b600260015414156105d35760405162461bcd60e51b815260206004820152601f60248201527f5265656e7472616e637947756172643a207265656e7472616e742063616c6c00604482015260640161055f565b600260018190555061061d85858585858080601f01602080910402602001604051908101604052809392919081815260200183838082843760009201919091525061098792505050565b505060018055505050565b6104e760066001610fdc565b6000546001600160a01b0316331461068e5760405162461bcd60e51b815260206004820181905260248201527f4f776e61626c653a2063616c6c6572206973206e6f7420746865206f776e6572604482015260640161055f565b6001600160a01b0381166106f35760405162461bcd60e51b815260206004820152602660248201527f4f776e61626c653a206e6577206f776e657220697320746865207a65726f206160448201526564647265737360d01b606482015260840161055f565b6106fc81610937565b50565b6002546000906001600160a01b039081169083166107256000546001600160a01b031690565b6001600160a01b031614806104d45750826001600160a01b0316816001600160a01b031663c45527916107606000546001600160a01b031690565b6040516001600160e01b031960e084901b1681526001600160a01b03909116600482015260240160206040518083038186803b15801561079f57600080fd5b505afa1580156107b3573d6000803e3d6000fd5b505050506040513d601f19601f820116820180604052508101906107d79190610da6565b6001600160a01b0316149392505050565b60006104d48284611008565b6060816108185750506040805180820190915260018152600360fc1b602082015290565b8160005b8115610842578061082c8161104b565b915061083b9050600a83610ff4565b915061081c565b60008167ffffffffffffffff81111561086b57634e487b7160e01b600052604160045260246000fd5b6040519080825280601f01601f191660200182016040528015610895576020820181803683370190505b5090505b841561090e576108aa600183611008565b91506108b7600a86611066565b6108c2906030610fdc565b60f81b8183815181106108e557634e487b7160e01b600052603260045260246000fd5b60200101906001600160f81b031916908160001a905350610907600a86610ff4565b9450610899565b949350505050565b6000808211801561090e57508161092d85856102ae565b1015949350505050565b600080546001600160a01b038381166001600160a01b0319831681178455604051919092169283917f8be0079c531659141344cd1fd0a4f28419497f9722a3daafe3b4186f6b6457e09190a35050565b610992338584610916565b6109f75760405162461bcd60e51b815260206004820152603060248201527f43726561747572654163636573736f7279466163746f7279235f6d696e743a2060448201526f43414e4e4f545f4d494e545f4d4f524560801b606482015260840161055f565b6006841015610af357610a09336106ff565b80610a2757506004546001600160a01b0316336001600160a01b0316145b610a735760405162461bcd60e51b815260206004820152601e60248201527f43616c6c65722063616e6e6f74206d696e74206163636573736f726965730000604482015260640161055f565b6003546001600160a01b03168063f242432a610a976000546001600160a01b031690565b868887876040518663ffffffff1660e01b8152600401610abb959493929190610f13565b600060405180830381600087803b158015610ad557600080fd5b505af1158015610ae9573d6000803e3d6000fd5b5050505050610bc4565b610aff60036006610fdc565b841015610b8a57610b0f336106ff565b610b5b5760405162461bcd60e51b815260206004820152601860248201527f43616c6c65722063616e6e6f74206d696e7420626f7865730000000000000000604482015260640161055f565b6000610b68600686611008565b600454909150610b84906001600160a01b031685838686610bca565b50610bc4565b60405162461bcd60e51b815260206004820152600f60248201526e2ab735b737bbb7102fb7b83a34b7b760891b604482015260640161055f565b50505050565b604051634f558e7960e01b81526004810184905285906001600160a01b03821690634f558e799060240160206040518083038186803b158015610c0c57600080fd5b505afa158015610c20573d6000803e3d6000fd5b505050506040513d601f19601f82011682018060405250810190610c449190610d86565b610cd2576040516336a100d560e01b81526001600160a01b038216906336a100d590610c7a908890889088908890600401610f8f565b602060405180830381600087803b158015610c9457600080fd5b505af1158015610ca8573d6000803e3d6000fd5b505050506040513d601f19601f82011682018060405250810190610ccc9190610dda565b50610d37565b60405163731133e960e01b81526001600160a01b0382169063731133e990610d04908890889088908890600401610f58565b600060405180830381600087803b158015610d1e57600080fd5b505af1158015610d32573d6000803e3d6000fd5b505050505b505050505050565b600060208284031215610d50578081fd5b81356104d4816110a6565b60008060408385031215610d6d578081fd5b8235610d78816110a6565b946020939093013593505050565b600060208284031215610d97578081fd5b815180151581146104d4578182fd5b600060208284031215610db7578081fd5b81516104d4816110a6565b600060208284031215610dd3578081fd5b5035919050565b600060208284031215610deb578081fd5b5051919050565b600080600080600060808688031215610e09578081fd5b853594506020860135610e1b816110a6565b935060408601359250606086013567ffffffffffffffff80821115610e3e578283fd5b818801915088601f830112610e51578283fd5b813581811115610e5f578384fd5b896020828501011115610e70578384fd5b9699959850939650602001949392505050565b60008060408385031215610e95578182fd5b50508035926020909101359150565b60008151808452610ebc81602086016020860161101f565b601f01601f19169290920160200192915050565b60008351610ee281846020880161101f565b67666163746f72792f60c01b9083019081528351610f0781600884016020880161101f565b01600801949350505050565b6001600160a01b03868116825285166020820152604081018490526060810183905260a060808201819052600090610f4d90830184610ea4565b979650505050505050565b60018060a01b0385168152836020820152826040820152608060608201526000610f856080830184610ea4565b9695505050505050565b60018060a01b038516815283602082015282604082015260a0606082015260008060a083015260c06080830152610f8560c0830184610ea4565b6020815260006104d46020830184610ea4565b60008219821115610fef57610fef61107a565b500190565b60008261100357611003611090565b500490565b60008282101561101a5761101a61107a565b500390565b60005b8381101561103a578181015183820152602001611022565b83811115610bc45750506000910152565b600060001982141561105f5761105f61107a565b5060010190565b60008261107557611075611090565b500690565b634e487b7160e01b600052601160045260246000fd5b634e487b7160e01b600052601260045260246000fd5b6001600160a01b03811681146106fc57600080fdfe4f70656e536561204372656174757265204163636573736f7279205072652d53616c6568747470733a2f2f6372656174757265732d6170692e6f70656e7365612e696f2f6170692fa26469706673582212202984e20e3b7350d9af3b323c70850efd59eac2f7288b566b78939f1331b7195764736f6c63430008040033",
  "linkReferences": {},
  "deployedLinkReferences": {}
}